{
  "_format": "hh-sol-artifact-1",
  "contractName": "EpochManager",
  "sourceName": "contracts/EpochManager.sol",
  "abi": [
    {
      "anonymous": false,
      "inputs": [
        {
          "indexed": false,
          "internalType": "address",
          "name": "",
          "type": "address"
        }
      ],
      "name": "EpochFinalized",
      "type": "event"
    },
    {
      "anonymous": false,
      "inputs": [
        {
          "indexed": false,
          "internalType": "address",
          "name": "",
          "type": "address"
        }
      ],
      "name": "EpochScheduled",
      "type": "event"
    },
    {
      "anonymous": false,
      "inputs": [
        {
          "indexed": false,
          "internalType": "address",
          "name": "",
          "type": "address"
        }
      ],
      "name": "EpochUpdated",
      "type": "event"
    },
    {
      "inputs": [
        {
          "internalType": "address",
          "name": "",
          "type": "address"
        }
      ],
      "name": "adminEpochs",
      "outputs": [
        {
          "internalType": "uint256",
          "name": "rewardBudget",
          "type": "uint256"
        },
        {
          "internalType": "uint256",
          "name": "startsAt",
          "type": "uint256"
        },
        {
          "internalType": "uint256",
          "name": "epochDuration",
          "type": "uint256"
        },
        {
          "internalType": "address",
          "name": "dedicatedCoordinator",
          "type": "address"
        },
        {
          "internalType": "uint256",
          "name": "rewardBudgetPerToken",
          "type": "uint256"
        }
      ],
      "stateMutability": "view",
      "type": "function"
    },
    {
      "inputs": [
        {
          "internalType": "address",
          "name": "addressOfEpochAdmin",
          "type": "address"
        }
      ],
      "name": "collectEpochReward",
      "outputs": [],
      "stateMutability": "nonpayable",
      "type": "function"
    },
    {
      "inputs": [
        {
          "internalType": "address",
          "name": "addressOfEpochAdmin",
          "type": "address"
        }
      ],
      "name": "getEpochMembers",
      "outputs": [
        {
          "internalType": "address[]",
          "name": "",
          "type": "address[]"
        }
      ],
      "stateMutability": "view",
      "type": "function"
    },
    {
      "inputs": [
        {
          "internalType": "address",
          "name": "addressOfEpochAdmin",
          "type": "address"
        }
      ],
      "name": "getEpochRevealedTokenAllocations",
      "outputs": [
        {
          "internalType": "uint256[]",
          "name": "",
          "type": "uint256[]"
        }
      ],
      "stateMutability": "view",
      "type": "function"
    },
    {
      "inputs": [
        {
          "internalType": "address",
          "name": "addressOfEpochAdmin",
          "type": "address"
        }
      ],
      "name": "getEpochRewardWithdrawals",
      "outputs": [
        {
          "internalType": "bool[]",
          "name": "",
          "type": "bool[]"
        }
      ],
      "stateMutability": "view",
      "type": "function"
    },
    {
      "inputs": [
        {
          "internalType": "address",
          "name": "addressOfEpochAdmin",
          "type": "address"
        }
      ],
      "name": "getEpochTokenAllocationCommitments",
      "outputs": [
        {
          "internalType": "bytes32[]",
          "name": "",
          "type": "bytes32[]"
        }
      ],
      "stateMutability": "view",
      "type": "function"
    },
    {
      "inputs": [
        {
          "internalType": "address",
          "name": "addressOfEpochAdmin",
          "type": "address"
        }
      ],
      "name": "getEpochTokenAllocationCommitmentsVerified",
      "outputs": [
        {
          "internalType": "bool[]",
          "name": "",
          "type": "bool[]"
        }
      ],
      "stateMutability": "view",
      "type": "function"
    },
    {
      "inputs": [
        {
          "internalType": "address",
          "name": "addressOfEpochAdmin",
          "type": "address"
        }
      ],
      "name": "isAllTokenAllocationCommitmentsVerified",
      "outputs": [
        {
          "internalType": "bool",
          "name": "",
          "type": "bool"
        }
      ],
      "stateMutability": "view",
      "type": "function"
    },
    {
      "inputs": [
        {
          "internalType": "address",
          "name": "addressOfEpochAdmin",
          "type": "address"
        }
      ],
      "name": "isEpochActive",
      "outputs": [
        {
          "internalType": "bool",
          "name": "",
          "type": "bool"
        }
      ],
      "stateMutability": "view",
      "type": "function"
    },
    {
      "inputs": [
        {
          "internalType": "address",
          "name": "addressOfEpochAdmin",
          "type": "address"
        }
      ],
      "name": "isEpochFinalized",
      "outputs": [
        {
          "internalType": "bool",
          "name": "",
          "type": "bool"
        }
      ],
      "stateMutability": "view",
      "type": "function"
    },
    {
      "inputs": [
        {
          "internalType": "address",
          "name": "addressOfEpochAdmin",
          "type": "address"
        }
      ],
      "name": "isEpochFinished",
      "outputs": [
        {
          "internalType": "bool",
          "name": "",
          "type": "bool"
        }
      ],
      "stateMutability": "view",
      "type": "function"
    },
    {
      "inputs": [
        {
          "internalType": "address[]",
          "name": "members",
          "type": "address[]"
        },
        {
          "internalType": "uint256",
          "name": "startsAt",
          "type": "uint256"
        },
        {
          "internalType": "uint256",
          "name": "epochDuration",
          "type": "uint256"
        },
        {
          "internalType": "address",
          "name": "dedicatedCoordinator",
          "type": "address"
        }
      ],
      "name": "scheduleNewEpoch",
      "outputs": [],
      "stateMutability": "payable",
      "type": "function"
    },
    {
      "inputs": [
        {
          "internalType": "address",
          "name": "addressOfEpochAdmin",
          "type": "address"
        },
        {
          "internalType": "uint256[]",
          "name": "finalTokenAllocations",
          "type": "uint256[]"
        }
      ],
      "name": "submitRevealedTokenAllocations",
      "outputs": [],
      "stateMutability": "nonpayable",
      "type": "function"
    },
    {
      "inputs": [
        {
          "internalType": "address",
          "name": "addressOfEpochAdmin",
          "type": "address"
        },
        {
          "internalType": "address",
          "name": "addressOfEpochMember",
          "type": "address"
        },
        {
          "internalType": "uint256[2]",
          "name": "proofA",
          "type": "uint256[2]"
        },
        {
          "internalType": "uint256[2][2]",
          "name": "proofB",
          "type": "uint256[2][2]"
        },
        {
          "internalType": "uint256[2]",
          "name": "proofC",
          "type": "uint256[2]"
        },
        {
          "internalType": "uint256[4]",
          "name": "proofInput",
          "type": "uint256[4]"
        }
      ],
      "name": "submitTokenAllocationCommitmentProof",
      "outputs": [],
      "stateMutability": "nonpayable",
      "type": "function"
    },
    {
      "inputs": [
        {
          "internalType": "address[]",
          "name": "members",
          "type": "address[]"
        }
      ],
      "name": "updateEpochMembers",
      "outputs": [],
      "stateMutability": "nonpayable",
      "type": "function"
    },
    {
      "inputs": [
        {
          "internalType": "address",
          "name": "addressOfEpochAdmin",
          "type": "address"
        },
        {
          "internalType": "bytes32",
          "name": "commitment",
          "type": "bytes32"
        }
      ],
      "name": "updateTokenAllocationCommitment",
      "outputs": [],
      "stateMutability": "nonpayable",
      "type": "function"
    },
    {
      "inputs": [
        {
          "internalType": "uint256[2]",
          "name": "a",
          "type": "uint256[2]"
        },
        {
          "internalType": "uint256[2][2]",
          "name": "b",
          "type": "uint256[2][2]"
        },
        {
          "internalType": "uint256[2]",
          "name": "c",
          "type": "uint256[2]"
        },
        {
          "internalType": "uint256[4]",
          "name": "input",
          "type": "uint256[4]"
        }
      ],
      "name": "verifyProof",
      "outputs": [
        {
          "internalType": "bool",
          "name": "r",
          "type": "bool"
        }
      ],
      "stateMutability": "view",
      "type": "function"
    }
  ],
  "bytecode": "0x608060405234801561001057600080fd5b50615f4e80620000216000396000f3fe6080604052600436106100fe5760003560e01c80637579887f11610095578063be58e00011610064578063be58e0001461030b578063c239f14d1461032b578063c7d0cfdd1461034b578063e2115bf11461036b578063ff1843dc1461039857600080fd5b80637579887f146102275780638f66cf121461023a578063900e1ada14610267578063b2dee8261461028757600080fd5b80634e6f44c8116100d15780634e6f44c81461019a5780635a83d81b146101ba5780635fe8c13b146101e757806367f13aa11461020757600080fd5b806304df4be6146101035780630e4f7271146101255780631cae27ea146101455780632ae0511a1461017a575b600080fd5b34801561010f57600080fd5b5061012361011e3660046159e0565b6103b8565b005b34801561013157600080fd5b50610123610140366004615966565b610a60565b34801561015157600080fd5b50610165610160366004615945565b611263565b60405190151581526020015b60405180910390f35b34801561018657600080fd5b50610123610195366004615aae565b6114a8565b3480156101a657600080fd5b506101656101b5366004615945565b611bae565b3480156101c657600080fd5b506101da6101d5366004615945565b611c94565b6040516101719190615c13565b3480156101f357600080fd5b50610165610202366004615b3e565b611fe8565b34801561021357600080fd5b506101da610222366004615945565b61211d565b610123610235366004615ae0565b612469565b34801561024657600080fd5b5061025a610255366004615945565b612865565b6040516101719190615bd9565b34801561027357600080fd5b5061025a610282366004615945565b612bb8565b34801561029357600080fd5b506102da6102a2366004615945565b600060208190529081526040902080546004820154600583015460068401546009909401549293919290916001600160a01b03169085565b604080519586526020860194909452928401919091526001600160a01b03166060830152608082015260a001610171565b34801561031757600080fd5b50610165610326366004615945565b612f09565b34801561033757600080fd5b50610123610346366004615a85565b613148565b34801561035757600080fd5b50610165610366366004615945565b61371b565b34801561037757600080fd5b5061038b610386366004615945565b6137e1565b6040516101719190615b8c565b3480156103a457600080fd5b506101236103b3366004615945565b613b3a565b6001600160a01b0382811660009081526020819052604090206006015483911633146103ff5760405162461bcd60e51b81526004016103f690615c4b565b60405180910390fd5b6001600160a01b0383166000908152602081815260409182902082516101408101845281548152600182018054855181860281018601909652808652889561067f959394938581019391929083018282801561048457602002820191906000526020600020905b81546001600160a01b03168152600190910190602001808311610466575b50505050508152602001600282018054806020026020016040519081016040528092919081815260200182805480156104dc57602002820191906000526020600020905b8154815260200190600101908083116104c8575b505050505081526020016003820180548060200260200160405190810160405280929190818152602001828054801561055457602002820191906000526020600020906000905b825461010083900a900460ff1615158152602060019283018181049485019490930390920291018084116105235790505b5050505050815260200160048201548152602001600582015481526020016006820160009054906101000a90046001600160a01b03166001600160a01b03166001600160a01b03168152602001600782018054806020026020016040519081016040528092919081815260200182805480156105ef57602002820191906000526020600020905b8154815260200190600101908083116105db575b505050505081526020016008820180548060200260200160405190810160405280929190818152602001828054801561066757602002820191906000526020600020906000905b825461010083900a900460ff1615158152602060019283018181049485019490930390920291018084116106365790505b5050505050815260200160098201548152505061444e565b15801561090457506001600160a01b03811660009081526020818152604091829020825161014081018452815481526001820180548551818602810186019096528086526109049592948581019392919083018282801561070957602002820191906000526020600020905b81546001600160a01b031681526001909101906020018083116106eb575b505050505081526020016002820180548060200260200160405190810160405280929190818152602001828054801561076157602002820191906000526020600020905b81548152602001906001019080831161074d575b50505050508152602001600382018054806020026020016040519081016040528092919081815260200182805480156107d957602002820191906000526020600020906000905b825461010083900a900460ff1615158152602060019283018181049485019490930390920291018084116107a85790505b5050505050815260200160048201548152602001600582015481526020016006820160009054906101000a90046001600160a01b03166001600160a01b03166001600160a01b031681526020016007820180548060200260200160405190810160405280929190818152602001828054801561087457602002820191906000526020600020905b815481526020019060010190808311610860575b50505050508152602001600882018054806020026020016040519081016040528092919081815260200182805480156108ec57602002820191906000526020600020906000905b825461010083900a900460ff1615158152602060019283018181049485019490930390920291018084116108bb5790505b50505050508152602001600982015481525050614480565b6109205760405162461bcd60e51b81526004016103f690615c9c565b61092984611bae565b61098f5760405162461bcd60e51b815260206004820152603160248201527f416c6c20746f6b656e20616c6c6f636174696f6e20636f6d6d69746d656e7473604482015270081b5d5cdd081899481d995c9a599a5959607a1b60648201526084016103f6565b6001600160a01b0384166000908152602081905260408120905b8451811015610a1b578481815181106109d257634e487b7160e01b600052603260045260246000fd5b60200260200101518260070182815481106109fd57634e487b7160e01b600052603260045260246000fd5b60009182526020909120015580610a1381615ea7565b9150506109a9565b506040516001600160a01b03861681527f438ac50c2d6913b7e86c868b76ff17285d92626dba84f2e30cd3e40936d9e080906020015b60405180910390a15050505050565b6001600160a01b038681166000908152602081905260409020600601548791163314610a9e5760405162461bcd60e51b81526004016103f690615c4b565b6001600160a01b03871660009081526020818152604091829020825161014081018452815481526001820180548551818602810186019096528086528c95610ce09593949385810193919290830182828015610484576020028201919060005260206000209081546001600160a01b031681526001909101906020018083116104665750505050508152602001600282018054806020026020016040519081016040528092919081815260200182805480156104dc57602002820191906000526020600020908154815260200190600101908083116104c8575050505050815260200160038201805480602002602001604051908101604052809291908181526020018280548015610554576000918252602091829020805460ff16151584529082028301929091600191018084116105235790505050505050815260200160048201548152602001600582015481526020016006820160009054906101000a90046001600160a01b03166001600160a01b03166001600160a01b03168152602001600782018054806020026020016040519081016040528092919081815260200182805480156105ef57602002820191906000526020600020908154815260200190600101908083116105db575050505050815260200160088201805480602002602001604051908101604052809291908181526020018280548015610667576000918252602091829020805460ff16151584529082028301929091600191018084116106365790505050505050815260200160098201548152505061444e565b610d235760405162461bcd60e51b815260206004820152601460248201527345706f6368206d7573742062652061637469766560601b60448201526064016103f6565b6001600160a01b03881660009081526020818152604080832081516101408101835281548152600182018054845181870281018701909552808552929594610fa79492938793858301939092909190830182828015610dab57602002820191906000526020600020905b81546001600160a01b03168152600190910190602001808311610d8d575b5050505050815260200160028201805480602002602001604051908101604052809291908181526020018280548015610e0357602002820191906000526020600020905b815481526020019060010190808311610def575b5050505050815260200160038201805480602002602001604051908101604052809291908181526020018280548015610e7b57602002820191906000526020600020906000905b825461010083900a900460ff161515815260206001928301818104948501949093039092029101808411610e4a5790505b5050505050815260200160048201548152602001600582015481526020016006820160009054906101000a90046001600160a01b03166001600160a01b03166001600160a01b0316815260200160078201805480602002602001604051908101604052809291908181526020018280548015610f1657602002820191906000526020600020905b815481526020019060010190808311610f02575b5050505050815260200160088201805480602002602001604051908101604052809291908181526020018280548015610f8e57602002820191906000526020600020906000905b825461010083900a900460ff161515815260206001928301818104948501949093039092029101808411610f5d5790505b505050505081526020016009820154815250508a61449e565b90506000198113610ffa5760405162461bcd60e51b815260206004820152601d60248201527f4d656d626572206e6f742070617274206f6620746869732045706f636800000060448201526064016103f6565b61100688888888611fe8565b6110485760405162461bcd60e51b8152602060048201526013602482015272141c9bdbd9881b5d5cdd081899481d985b1a59606a1b60448201526064016103f6565b61107e82600201828154811061106e57634e487b7160e01b600052603260045260246000fd5b9060005260206000200154614518565b6020860151146111045760405162461bcd60e51b815260206004820152604560248201527f707562546f6b656e416c6c6f636174696f6e486173682070726f6f6620696e7060448201527f757420646f6573206e6f74206d61746368206578697374696e6720636f6d6d696064820152641d1b595b9d60da1b608482015260a4016103f6565b6040850151811461116a5760405162461bcd60e51b815260206004820152602a60248201527f616c6c6f636174696e674d656d6265724964782070726f6f6620696e707574206044820152691a5cc81a5b9d985b1a5960b21b60648201526084016103f6565b60018201546060860151146111cb5760405162461bcd60e51b815260206004820152602160248201527f6e756d4d656d626572732070726f6f6620696e70757420697320696e76616c696044820152601960fa1b60648201526084016103f6565b60018260030182815481106111f057634e487b7160e01b600052603260045260246000fd5b6000918252602091829020828204018054931515601f9092166101000a91820260ff90920219909316179091556040516001600160a01b038c1681527f7a32bee4984163e4185449f1a14980444a6d9b8cb5c460fab0ffc56ae89ce461910160405180910390a150505050505050505050565b6001600160a01b038116600090815260208181526040808320815161014081018352815481526001820180548451818702810187019095528085526114a29592948584019390929190830182828015610484576020028201919060005260206000209081546001600160a01b031681526001909101906020018083116104665750505050508152602001600282018054806020026020016040519081016040528092919081815260200182805480156104dc57602002820191906000526020600020908154815260200190600101908083116104c8575050505050815260200160038201805480602002602001604051908101604052809291908181526020018280548015610554576000918252602091829020805460ff16151584529082028301929091600191018084116105235790505050505050815260200160048201548152602001600582015481526020016006820160009054906101000a90046001600160a01b03166001600160a01b03166001600160a01b03168152602001600782018054806020026020016040519081016040528092919081815260200182805480156105ef57602002820191906000526020600020908154815260200190600101908083116105db575050505050815260200160088201805480602002602001604051908101604052809291908181526020018280548015610667576000918252602091829020805460ff16151584529082028301929091600191018084116106365790505050505050815260200160098201548152505061444e565b92915050565b3360008181526020818152604091829020825161014081018452815481526001820180548551818602810186019096528086526116de95929485810193929190830182828015610484576020028201919060005260206000209081546001600160a01b031681526001909101906020018083116104665750505050508152602001600282018054806020026020016040519081016040528092919081815260200182805480156104dc57602002820191906000526020600020908154815260200190600101908083116104c8575050505050815260200160038201805480602002602001604051908101604052809291908181526020018280548015610554576000918252602091829020805460ff16151584529082028301929091600191018084116105235790505050505050815260200160048201548152602001600582015481526020016006820160009054906101000a90046001600160a01b03166001600160a01b03166001600160a01b03168152602001600782018054806020026020016040519081016040528092919081815260200182805480156105ef57602002820191906000526020600020908154815260200190600101908083116105db575050505050815260200160088201805480602002602001604051908101604052809291908181526020018280548015610667576000918252602091829020805460ff16151584529082028301929091600191018084116106365790505050505050815260200160098201548152505061444e565b15801561192757506001600160a01b038116600090815260208181526040918290208251610140810184528154815260018201805485518186028101860190965280865261192595929485810193929190830182828015610709576020028201919060005260206000209081546001600160a01b031681526001909101906020018083116106eb575050505050815260200160028201805480602002602001604051908101604052809291908181526020018280548015610761576020028201919060005260206000209081548152602001906001019080831161074d5750505050508152602001600382018054806020026020016040519081016040528092919081815260200182805480156107d9576000918252602091829020805460ff16151584529082028301929091600191018084116107a85790505050505050815260200160048201548152602001600582015481526020016006820160009054906101000a90046001600160a01b03166001600160a01b03166001600160a01b031681526020016007820180548060200260200160405190810160405280929190818152602001828054801561087457602002820191906000526020600020908154815260200190600101908083116108605750505050508152602001600882018054806020026020016040519081016040528092919081815260200182805480156108ec576000918252602091829020805460ff16151584529082028301929091600191018084116108bb57905050505050508152602001600982015481525050614480565b155b6119865760405162461bcd60e51b815260206004820152602a60248201527f45706f6368206d75737420626520696e61637469766520616e64206e6f742079604482015269195d081cdd185c9d195960b21b60648201526084016103f6565b33600090815260208181526040909120835190916119ab916001840191860190615508565b5082516001600160401b038111156119d357634e487b7160e01b600052604160045260246000fd5b6040519080825280602002602001820160405280156119fc578160200160208202803683370190505b508051611a1391600284019160209091019061556d565b5082516001600160401b03811115611a3b57634e487b7160e01b600052604160045260246000fd5b604051908082528060200260200182016040528015611a64578160200160208202803683370190505b508051611a7b9160038401916020909101906155a8565b5082516001600160401b03811115611aa357634e487b7160e01b600052604160045260246000fd5b604051908082528060200260200182016040528015611acc578160200160208202803683370190505b508051611ae391600784019160209091019061556d565b5082516001600160401b03811115611b0b57634e487b7160e01b600052604160045260246000fd5b604051908082528060200260200182016040528015611b34578160200160208202803683370190505b508051611b4b9160088401916020909101906155a8565b506001810154600090611b6090612710615e71565b8254909150611b70908290615d72565b60098301556040513381527f7a32bee4984163e4185449f1a14980444a6d9b8cb5c460fab0ffc56ae89ce4619060200160405180910390a150505050565b6001600160a01b03811660009081526020818152604080832060030180548251818502810185019093528083528493830182828015611c2c57602002820191906000526020600020906000905b825461010083900a900460ff161515815260206001928301818104948501949093039092029101808411611bfb5790505b5050505050905060005b8151811015611c8a57818181518110611c5f57634e487b7160e01b600052603260045260246000fd5b6020908102919091010151611c78575060009392505050565b80611c8281615ea7565b915050611c36565b5060019392505050565b6001600160a01b038116600090815260208181526040808320815161014081018352815481526001820180548451818702810187019095528085526060969592948584019390929190830182828015611d1657602002820191906000526020600020905b81546001600160a01b03168152600190910190602001808311611cf8575b5050505050815260200160028201805480602002602001604051908101604052809291908181526020018280548015611d6e57602002820191906000526020600020905b815481526020019060010190808311611d5a575b5050505050815260200160038201805480602002602001604051908101604052809291908181526020018280548015611de657602002820191906000526020600020906000905b825461010083900a900460ff161515815260206001928301818104948501949093039092029101808411611db55790505b5050505050815260200160048201548152602001600582015481526020016006820160009054906101000a90046001600160a01b03166001600160a01b03166001600160a01b0316815260200160078201805480602002602001604051908101604052809291908181526020018280548015611e8157602002820191906000526020600020905b815481526020019060010190808311611e6d575b5050505050815260200160088201805480602002602001604051908101604052809291908181526020018280548015611ef957602002820191906000526020600020906000905b825461010083900a900460ff161515815260206001928301818104948501949093039092029101808411611ec85790505b50505050508152602001600982015481525050905060008160400151516001600160401b03811115611f3b57634e487b7160e01b600052604160045260246000fd5b604051908082528060200260200182016040528015611f64578160200160208202803683370190505b50905060005b826040015151811015611fe05782604001518181518110611f9b57634e487b7160e01b600052603260045260246000fd5b6020026020010151828281518110611fc357634e487b7160e01b600052603260045260246000fd5b602090810291909101015280611fd881615ea7565b915050611f6a565b509392505050565b6000611ff2615648565b60408051808201825287518152602080890151818301529083528151608080820184528851518285019081528951840151606084015282528351808501855289840180515182525184015181850152828401528483019190915282518084018452875181528783015181840152848401528251600480825260a0820190945260009390929091908301908036833701905050905060005b60048110156120f4578481600481106120b257634e487b7160e01b600052603260045260246000fd5b60200201518282815181106120d757634e487b7160e01b600052603260045260246000fd5b6020908102919091010152806120ec81615ea7565b915050612089565b506120ff81836145a4565b61210e57600192505050612115565b6000925050505b949350505050565b6001600160a01b03811660009081526020818152604080832081516101408101835281548152600182018054845181870281018701909552808552606096959294858401939092919083018282801561219f57602002820191906000526020600020905b81546001600160a01b03168152600190910190602001808311612181575b50505050508152602001600282018054806020026020016040519081016040528092919081815260200182805480156121f757602002820191906000526020600020905b8154815260200190600101908083116121e3575b505050505081526020016003820180548060200260200160405190810160405280929190818152602001828054801561226f57602002820191906000526020600020906000905b825461010083900a900460ff16151581526020600192830181810494850194909303909202910180841161223e5790505b5050505050815260200160048201548152602001600582015481526020016006820160009054906101000a90046001600160a01b03166001600160a01b03166001600160a01b031681526020016007820180548060200260200160405190810160405280929190818152602001828054801561230a57602002820191906000526020600020905b8154815260200190600101908083116122f6575b505050505081526020016008820180548060200260200160405190810160405280929190818152602001828054801561238257602002820191906000526020600020906000905b825461010083900a900460ff1615158152602060019283018181049485019490930390920291018084116123515790505b50505050508152602001600982015481525050905060008160400151516001600160401b038111156123c457634e487b7160e01b600052604160045260246000fd5b6040519080825280602002602001820160405280156123ed578160200160208202803683370190505b50905060005b8260e0015151811015611fe0578260e00151818151811061242457634e487b7160e01b600052603260045260246000fd5b602002602001015182828151811061244c57634e487b7160e01b600052603260045260246000fd5b60209081029190910101528061246181615ea7565b9150506123f3565b600034116124d05760405162461bcd60e51b815260206004820152602e60248201527f4d7573742073656e6420736f6d652066756e647320746f20616c6c6f6361746560448201526d10323ab934b7339032b837b1b41760911b60648201526084016103f6565b60028451101580156124e45750600f845111155b6125685760405162461bcd60e51b815260206004820152604960248201527f43616e6e6f74206372656174652045706f636820696e766f6c76696e67206c6560448201527f7373207468616e2032206d656d62657273206f72206d6f7265207468616e203160648201526835206d656d6265727360b81b608482015260a4016103f6565b4283116125b75760405162461bcd60e51b815260206004820152601e60248201527f45706f6368206d75737420737461727420696e2074686520667574757265000060448201526064016103f6565b6001600160a01b03811661260d5760405162461bcd60e51b815260206004820152601760248201527f4d7573742061737369676e20636f6f7264696e61746f7200000000000000000060448201526064016103f6565b3360009081526020818152604090912034815585519091612635916001840191880190615508565b5084516001600160401b0381111561265d57634e487b7160e01b600052604160045260246000fd5b604051908082528060200260200182016040528015612686578160200160208202803683370190505b50805161269d91600284019160209091019061556d565b5084516001600160401b038111156126c557634e487b7160e01b600052604160045260246000fd5b6040519080825280602002602001820160405280156126ee578160200160208202803683370190505b5080516127059160038401916020909101906155a8565b5084516001600160401b0381111561272d57634e487b7160e01b600052604160045260246000fd5b604051908082528060200260200182016040528015612756578160200160208202803683370190505b50805161276d91600784019160209091019061556d565b5084516001600160401b0381111561279557634e487b7160e01b600052604160045260246000fd5b6040519080825280602002602001820160405280156127be578160200160208202803683370190505b5080516127d59160088401916020909101906155a8565b5060018101546000906127ea90612710615e71565b82549091506127fa908290615d72565b600983015560048201859055600582018490556006820180546001600160a01b0319166001600160a01b0385161790556040513381527f98c2cbe6315338eb28f0caede11296b74c13dd1149fff9d2c507593256b3a4809060200160405180910390a1505050505050565b6001600160a01b0381166000908152602081815260408083208151610140810183528154815260018201805484518187028101870190955280855260609695929485840193909291908301828280156128e757602002820191906000526020600020905b81546001600160a01b031681526001909101906020018083116128c9575b505050505081526020016002820180548060200260200160405190810160405280929190818152602001828054801561293f57602002820191906000526020600020905b81548152602001906001019080831161292b575b50505050508152602001600382018054806020026020016040519081016040528092919081815260200182805480156129b757602002820191906000526020600020906000905b825461010083900a900460ff1615158152602060019283018181049485019490930390920291018084116129865790505b5050505050815260200160048201548152602001600582015481526020016006820160009054906101000a90046001600160a01b03166001600160a01b03166001600160a01b0316815260200160078201805480602002602001604051908101604052809291908181526020018280548015612a5257602002820191906000526020600020905b815481526020019060010190808311612a3e575b5050505050815260200160088201805480602002602001604051908101604052809291908181526020018280548015612aca57602002820191906000526020600020906000905b825461010083900a900460ff161515815260206001928301818104948501949093039092029101808411612a995790505b50505050508152602001600982015481525050905060008160400151516001600160401b03811115612b0c57634e487b7160e01b600052604160045260246000fd5b604051908082528060200260200182016040528015612b35578160200160208202803683370190505b50905060005b82610100015151811015611fe0578261010001518181518110612b6e57634e487b7160e01b600052603260045260246000fd5b6020026020010151828281518110612b9657634e487b7160e01b600052603260045260246000fd5b9115156020928302919091019091015280612bb081615ea7565b915050612b3b565b6001600160a01b038116600090815260208181526040808320815161014081018352815481526001820180548451818702810187019095528085526060969592948584019390929190830182828015612c3a57602002820191906000526020600020905b81546001600160a01b03168152600190910190602001808311612c1c575b5050505050815260200160028201805480602002602001604051908101604052809291908181526020018280548015612c9257602002820191906000526020600020905b815481526020019060010190808311612c7e575b5050505050815260200160038201805480602002602001604051908101604052809291908181526020018280548015612d0a57602002820191906000526020600020906000905b825461010083900a900460ff161515815260206001928301818104948501949093039092029101808411612cd95790505b5050505050815260200160048201548152602001600582015481526020016006820160009054906101000a90046001600160a01b03166001600160a01b03166001600160a01b0316815260200160078201805480602002602001604051908101604052809291908181526020018280548015612da557602002820191906000526020600020905b815481526020019060010190808311612d91575b5050505050815260200160088201805480602002602001604051908101604052809291908181526020018280548015612e1d57602002820191906000526020600020906000905b825461010083900a900460ff161515815260206001928301818104948501949093039092029101808411612dec5790505b50505050508152602001600982015481525050905060008160400151516001600160401b03811115612e5f57634e487b7160e01b600052604160045260246000fd5b604051908082528060200260200182016040528015612e88578160200160208202803683370190505b50905060005b826060015151811015611fe05782606001518181518110612ebf57634e487b7160e01b600052603260045260246000fd5b6020026020010151828281518110612ee757634e487b7160e01b600052603260045260246000fd5b9115156020928302919091019091015280612f0181615ea7565b915050612e8e565b6001600160a01b038116600090815260208181526040808320815161014081018352815481526001820180548451818702810187019095528085526114a29592948584019390929190830182828015610709576020028201919060005260206000209081546001600160a01b031681526001909101906020018083116106eb575050505050815260200160028201805480602002602001604051908101604052809291908181526020018280548015610761576020028201919060005260206000209081548152602001906001019080831161074d5750505050508152602001600382018054806020026020016040519081016040528092919081815260200182805480156107d9576000918252602091829020805460ff16151584529082028301929091600191018084116107a85790505050505050815260200160048201548152602001600582015481526020016006820160009054906101000a90046001600160a01b03166001600160a01b03166001600160a01b031681526020016007820180548060200260200160405190810160405280929190818152602001828054801561087457602002820191906000526020600020908154815260200190600101908083116108605750505050508152602001600882018054806020026020016040519081016040528092919081815260200182805480156108ec576000918252602091829020805460ff16151584529082028301929091600191018084116108bb57905050505050508152602001600982015481525050614480565b6001600160a01b0382166000908152602081815260409182902082516101408101845281548152600182018054855181860281018601909652808652879561338a9593949385810193919290830182828015610484576020028201919060005260206000209081546001600160a01b031681526001909101906020018083116104665750505050508152602001600282018054806020026020016040519081016040528092919081815260200182805480156104dc57602002820191906000526020600020908154815260200190600101908083116104c8575050505050815260200160038201805480602002602001604051908101604052809291908181526020018280548015610554576000918252602091829020805460ff16151584529082028301929091600191018084116105235790505050505050815260200160048201548152602001600582015481526020016006820160009054906101000a90046001600160a01b03166001600160a01b03166001600160a01b03168152602001600782018054806020026020016040519081016040528092919081815260200182805480156105ef57602002820191906000526020600020908154815260200190600101908083116105db575050505050815260200160088201805480602002602001604051908101604052809291908181526020018280548015610667576000918252602091829020805460ff16151584529082028301929091600191018084116106365790505050505050815260200160098201548152505061444e565b6133cd5760405162461bcd60e51b815260206004820152601460248201527345706f6368206d7573742062652061637469766560601b60448201526064016103f6565b6001600160a01b03831660009081526020818152604080832081516101408101835281548152600182018054845181870281018701909552808552929594613651949293879385830193909290919083018282801561345557602002820191906000526020600020905b81546001600160a01b03168152600190910190602001808311613437575b50505050508152602001600282018054806020026020016040519081016040528092919081815260200182805480156134ad57602002820191906000526020600020905b815481526020019060010190808311613499575b505050505081526020016003820180548060200260200160405190810160405280929190818152602001828054801561352557602002820191906000526020600020906000905b825461010083900a900460ff1615158152602060019283018181049485019490930390920291018084116134f45790505b5050505050815260200160048201548152602001600582015481526020016006820160009054906101000a90046001600160a01b03166001600160a01b03166001600160a01b03168152602001600782018054806020026020016040519081016040528092919081815260200182805480156135c057602002820191906000526020600020905b8154815260200190600101908083116135ac575b505050505081526020016008820180548060200260200160405190810160405280929190818152602001828054801561363857602002820191906000526020600020906000905b825461010083900a900460ff1615158152602060019283018181049485019490930390920291018084116136075790505b505050505081526020016009820154815250503361449e565b905060001981136136b05760405162461bcd60e51b8152602060048201526024808201527f436f6d6d69746d656e74206d7573742062652066726f6d2045706f6368206d6560448201526336b132b960e11b60648201526084016103f6565b838260020182815481106136d457634e487b7160e01b600052603260045260246000fd5b600091825260209182902001919091556040516001600160a01b03871681527f7a32bee4984163e4185449f1a14980444a6d9b8cb5c460fab0ffc56ae89ce4619101610a51565b6001600160a01b0381166000908152602081815260408083206007018054825181850281018501909352808352849383018282801561377957602002820191906000526020600020905b815481526020019060010190808311613765575b5050505050905060005b81518110156137d7578181815181106137ac57634e487b7160e01b600052603260045260246000fd5b60200260200101516000146137c5575060019392505050565b806137cf81615ea7565b915050613783565b5060009392505050565b6001600160a01b03811660009081526020818152604080832081516101408101835281548152600182018054845181870281018701909552808552606096959294858401939092919083018282801561386357602002820191906000526020600020905b81546001600160a01b03168152600190910190602001808311613845575b50505050508152602001600282018054806020026020016040519081016040528092919081815260200182805480156138bb57602002820191906000526020600020905b8154815260200190600101908083116138a7575b505050505081526020016003820180548060200260200160405190810160405280929190818152602001828054801561393357602002820191906000526020600020906000905b825461010083900a900460ff1615158152602060019283018181049485019490930390920291018084116139025790505b5050505050815260200160048201548152602001600582015481526020016006820160009054906101000a90046001600160a01b03166001600160a01b03166001600160a01b03168152602001600782018054806020026020016040519081016040528092919081815260200182805480156139ce57602002820191906000526020600020905b8154815260200190600101908083116139ba575b5050505050815260200160088201805480602002602001604051908101604052809291908181526020018280548015613a4657602002820191906000526020600020906000905b825461010083900a900460ff161515815260206001928301818104948501949093039092029101808411613a155790505b50505050508152602001600982015481525050905060008160200151516001600160401b03811115613a8857634e487b7160e01b600052604160045260246000fd5b604051908082528060200260200182016040528015613ab1578160200160208202803683370190505b50905060005b826020015151811015611fe05782602001518181518110613ae857634e487b7160e01b600052603260045260246000fd5b6020026020010151828281518110613b1057634e487b7160e01b600052603260045260246000fd5b6001600160a01b039092166020928302919091019091015280613b3281615ea7565b915050613ab7565b6001600160a01b03811660009081526020818152604091829020825161014081018452815481526001820180548551818602810186019096528086528695613d7c9593949385810193919290830182828015610484576020028201919060005260206000209081546001600160a01b031681526001909101906020018083116104665750505050508152602001600282018054806020026020016040519081016040528092919081815260200182805480156104dc57602002820191906000526020600020908154815260200190600101908083116104c8575050505050815260200160038201805480602002602001604051908101604052809291908181526020018280548015610554576000918252602091829020805460ff16151584529082028301929091600191018084116105235790505050505050815260200160048201548152602001600582015481526020016006820160009054906101000a90046001600160a01b03166001600160a01b03166001600160a01b03168152602001600782018054806020026020016040519081016040528092919081815260200182805480156105ef57602002820191906000526020600020908154815260200190600101908083116105db575050505050815260200160088201805480602002602001604051908101604052809291908181526020018280548015610667576000918252602091829020805460ff16151584529082028301929091600191018084116106365790505050505050815260200160098201548152505061444e565b158015613fc357506001600160a01b0381166000908152602081815260409182902082516101408101845281548152600182018054855181860281018601909652808652613fc395929485810193929190830182828015610709576020028201919060005260206000209081546001600160a01b031681526001909101906020018083116106eb575050505050815260200160028201805480602002602001604051908101604052809291908181526020018280548015610761576020028201919060005260206000209081548152602001906001019080831161074d5750505050508152602001600382018054806020026020016040519081016040528092919081815260200182805480156107d9576000918252602091829020805460ff16151584529082028301929091600191018084116107a85790505050505050815260200160048201548152602001600582015481526020016006820160009054906101000a90046001600160a01b03166001600160a01b03166001600160a01b031681526020016007820180548060200260200160405190810160405280929190818152602001828054801561087457602002820191906000526020600020908154815260200190600101908083116108605750505050508152602001600882018054806020026020016040519081016040528092919081815260200182805480156108ec576000918252602091829020805460ff16151584529082028301929091600191018084116108bb57905050505050508152602001600982015481525050614480565b613fdf5760405162461bcd60e51b81526004016103f690615c9c565b613fe88261371b565b61404d5760405162461bcd60e51b815260206004820152603060248201527f45706f6368206d7573742062652066696e616c697a6564206265666f7265207760448201526f69746864726177696e672066756e647360801b60648201526084016103f6565b6001600160a01b038216600090815260208181526040808320815161014081018352815481526001820180548451818702810187019095528085529295946142939492938793858301939092909190830182828015613455576020028201919060005260206000209081546001600160a01b031681526001909101906020018083116134375750505050508152602001600282018054806020026020016040519081016040528092919081815260200182805480156134ad5760200282019190600052602060002090815481526020019060010190808311613499575050505050815260200160038201805480602002602001604051908101604052809291908181526020018280548015613525576000918252602091829020805460ff16151584529082028301929091600191018084116134f45790505050505050815260200160048201548152602001600582015481526020016006820160009054906101000a90046001600160a01b03166001600160a01b03166001600160a01b03168152602001600782018054806020026020016040519081016040528092919081815260200182805480156135c057602002820191906000526020600020908154815260200190600101908083116135ac575050505050815260200160088201805480602002602001604051908101604052809291908181526020018280548015613638576000918252602091829020805460ff1615158452908202830192909160019101808411613607579050505050505081526020016009820154815250503361449e565b905060001981136142e65760405162461bcd60e51b815260206004820152601d60248201527f4d656d626572206e6f742070617274206f6620746869732045706f636800000060448201526064016103f6565b81600801818154811061430957634e487b7160e01b600052603260045260246000fd5b90600052602060002090602091828204019190069054906101000a900460ff16156143875760405162461bcd60e51b815260206004820152602860248201527f526577617264206d757374206e6f742068617665206265656e2077697468647260448201526730bbb7103cb2ba1760c11b60648201526084016103f6565b60018260080182815481106143ac57634e487b7160e01b600052603260045260246000fd5b90600052602060002090602091828204019190066101000a81548160ff021916908315150217905550336001600160a01b03166108fc836009015484600701848154811061440a57634e487b7160e01b600052603260045260246000fd5b906000526020600020015461441f9190615e71565b6040518115909202916000818181858888f19350505050158015614447573d6000803e3d6000fd5b5050505050565b60004282608001511161447857428260a0015183608001516144709190615d5a565b101592915050565b506000919050565b600061448b8261444e565b1580156114a25750506080015142101590565b6000805b83602001515181101561450d57836020015181815181106144d357634e487b7160e01b600052603260045260246000fd5b60200260200101516001600160a01b0316836001600160a01b031614156144fb5790506114a2565b8061450581615ea7565b9150506144a2565b506000199392505050565b60008060005b602081101561459d57614532816001615d5a565b61453d906020615e90565b614548906008615e71565b614553906002615dc9565b84826020811061457357634e487b7160e01b600052603260045260246000fd5b61457f9291901a615e71565b6145899083615d5a565b91508061459581615ea7565b91505061451e565b5092915050565b60007f30644e72e131a029b85045b68181585d2833e84879b9709143e1f593f0000001816145d06147cc565b9050806080015151855160016145e69190615d5a565b146146285760405162461bcd60e51b81526020600482015260126024820152711d995c9a599a595c8b5898590b5a5b9c1d5d60721b60448201526064016103f6565b604080518082019091526000808252602082018190525b8651811015614743578387828151811061466957634e487b7160e01b600052603260045260246000fd5b6020026020010151106146be5760405162461bcd60e51b815260206004820152601f60248201527f76657269666965722d6774652d736e61726b2d7363616c61722d6669656c640060448201526064016103f6565b61472f8261472a85608001518460016146d79190615d5a565b815181106146f557634e487b7160e01b600052603260045260246000fd5b60200260200101518a858151811061471d57634e487b7160e01b600052603260045260246000fd5b6020026020010151614d12565b614dae565b91508061473b81615ea7565b91505061463f565b5061477a81836080015160008151811061476d57634e487b7160e01b600052603260045260246000fd5b6020026020010151614dae565b90506147b061478c8660000151614e46565b8660200151846000015185602001518587604001518b604001518960600151614ee5565b6147c057600193505050506114a2565b50600095945050505050565b6147d4615699565b6040805180820182527f2d4d9aa7e302d9df41749d5507949d05dbea33fbb16c643b22f599a2be6df2e281527f14bedd503c37ceb061d8ec60209fe345ce89830a19230301f076caff004d19266020808301919091529083528151608080820184527f0967032fcbf776d1afc985f88877f182d38480a653f2decaa9794cbc3bf3060c8285019081527f0e187847ad4c798374d0d6732bf501847dd68bc0e071241e0213bc7fc13db7ab606080850191909152908352845180860186527f304cfbd1e08a704a99f5e847d93f8c3caafddec46b7a0d379da69a4d112346a781527f1739c1b1a457a8c7313123d24d2f9192f896b7c63eea05a9d57f06547ad0cec8818601528385015285840192909252835180820185527f198e9393920d483a7260bfb731fb5d25f1aa493335a9e71297e485b7aef312c28186019081527f1800deef121f1e76426a00665e5c4479674322d4f75edadd46debd5cd992f6ed828501528152845180860186527f090689d0585ff075ec9e99ad690c3395bc4b313370b38ef355acdadcd122975b81527f12c85ea5db8c6deb4aab71808dcb408fe3d1e7690c43d37b4ce6cc0166fa7daa818601528185015285850152835190810184527f2e1a59bf0cb3b213e7cad5b7c6901c0a993010fad19bcd6f89f615eeb22d7b828185019081527f123e7271da3364c41b5c5973c22c070926432db92c9fffdac1d42dc04331dabc828401528152835180850185527f2ab92f880989abc00978ebcd8cb65ee3430300f3dd867aa7999289345b9abcc081527f1bc4c5833765a9f03f42cbcd05436b9a46384edb79996523043181c077290f138185015281840152908401528151600580825260c08201909352919082015b6040805180820190915260008082526020820152815260200190600190039081614a4f57505060808201908152604080518082019091527f1553409d29f108b15c68a3f663deec6e07a7932fd22ca71523fb5fa6eab75c2481527f18c5321b34630167b7d33e9f00d66c1fedacca3d01ef900efd968b624d62e5fc602082015290518051600090614af057634e487b7160e01b600052603260045260246000fd5b602002602001018190525060405180604001604052807f126398f9290f5a84f85fdd43f1dec564631b432c82bd8e5fec40a0532babe36481526020017f1d27f6da79e1063333a8ba10155d79f4b24c6f2ab6c08849d06deea65387ba668152508160800151600181518110614b7557634e487b7160e01b600052603260045260246000fd5b602002602001018190525060405180604001604052807f2f8f7122a69f86cd86ef9ce2dfba5d70ed60c7f1e8ccbc607315dbc9c57703dc81526020017f195fd32371f25097e80a963f7ef3099565eea45ebbc001a999d02d1d7abe82638152508160800151600281518110614bfa57634e487b7160e01b600052603260045260246000fd5b602002602001018190525060405180604001604052807f229dc379b294339526d4b93e794e128ea85a19d9ee4f5c9f044da32bf9f37a5581526020017f2fed1ed7ed52b0d84ad8898263e6a25b4a5cfa8b49d30cac56a9abdcedfd17ac8152508160800151600381518110614c7f57634e487b7160e01b600052603260045260246000fd5b602002602001018190525060405180604001604052807f0e55f14531c60978e8e94fe9c98eaefdf7b40cc25f8d4cad778f2f11d9bcf89481526020017f2dfcf94e3b185b0964f85aed3081c3799543892d30e6be4638efbf850d7552028152508160800151600481518110614d0457634e487b7160e01b600052603260045260246000fd5b602002602001018190525090565b6040805180820190915260008082526020820152614d2e6156ea565b835181526020808501519082015260408101839052600060608360808460076107d05a03fa9050808015614d6157614d63565bfe5b5080614da65760405162461bcd60e51b81526020600482015260126024820152711c185a5c9a5b99cb5b5d5b0b59985a5b195960721b60448201526064016103f6565b505092915050565b6040805180820190915260008082526020820152614dca615708565b8351815260208085015181830152835160408301528301516060808301919091526000908360c08460066107d05a03fa9050808015614d61575080614da65760405162461bcd60e51b81526020600482015260126024820152711c185a5c9a5b99cb5859190b59985a5b195960721b60448201526064016103f6565b604080518082019091526000808252602082015281517f30644e72e131a029b85045b68181585d97816a916871ca8d3c208c16d87cfd4790158015614e8d57506020830151155b15614ead5750506040805180820190915260008082526020820152919050565b604051806040016040528084600001518152602001828560200151614ed29190615ec2565b614edc9084615e90565b90529392505050565b60408051600480825260a08201909252600091829190816020015b6040805180820190915260008082526020820152815260200190600190039081614f0057505060408051600480825260a0820190925291925060009190602082015b614f4a615726565b815260200190600190039081614f425790505090508a82600081518110614f8157634e487b7160e01b600052603260045260246000fd5b60200260200101819052508882600181518110614fae57634e487b7160e01b600052603260045260246000fd5b60200260200101819052508682600281518110614fdb57634e487b7160e01b600052603260045260246000fd5b6020026020010181905250848260038151811061500857634e487b7160e01b600052603260045260246000fd5b6020026020010181905250898160008151811061503557634e487b7160e01b600052603260045260246000fd5b6020026020010181905250878160018151811061506257634e487b7160e01b600052603260045260246000fd5b6020026020010181905250858160028151811061508f57634e487b7160e01b600052603260045260246000fd5b602002602001018190525083816003815181106150bc57634e487b7160e01b600052603260045260246000fd5b60200260200101819052506150d182826150e0565b9b9a5050505050505050505050565b6000815183511461512c5760405162461bcd60e51b81526020600482015260166024820152751c185a5c9a5b99cb5b195b99dd1a1ccb59985a5b195960521b60448201526064016103f6565b8251600061513b826006615e71565b90506000816001600160401b0381111561516557634e487b7160e01b600052604160045260246000fd5b60405190808252806020026020018201604052801561518e578160200160208202803683370190505b50905060005b8381101561548d578681815181106151bc57634e487b7160e01b600052603260045260246000fd5b602002602001015160000151828260066151d69190615e71565b6151e1906000615d5a565b815181106151ff57634e487b7160e01b600052603260045260246000fd5b60200260200101818152505086818151811061522b57634e487b7160e01b600052603260045260246000fd5b602002602001015160200151828260066152459190615e71565b615250906001615d5a565b8151811061526e57634e487b7160e01b600052603260045260246000fd5b60200260200101818152505085818151811061529a57634e487b7160e01b600052603260045260246000fd5b60209081029190910101515151826152b3836006615e71565b6152be906002615d5a565b815181106152dc57634e487b7160e01b600052603260045260246000fd5b60200260200101818152505085818151811061530857634e487b7160e01b600052603260045260246000fd5b60209081029190910181015151015182615323836006615e71565b61532e906003615d5a565b8151811061534c57634e487b7160e01b600052603260045260246000fd5b60200260200101818152505085818151811061537857634e487b7160e01b600052603260045260246000fd5b6020026020010151602001516000600281106153a457634e487b7160e01b600052603260045260246000fd5b6020020151826153b5836006615e71565b6153c0906004615d5a565b815181106153de57634e487b7160e01b600052603260045260246000fd5b60200260200101818152505085818151811061540a57634e487b7160e01b600052603260045260246000fd5b60200260200101516020015160016002811061543657634e487b7160e01b600052603260045260246000fd5b602002015182615447836006615e71565b615452906005615d5a565b8151811061547057634e487b7160e01b600052603260045260246000fd5b60209081029190910101528061548581615ea7565b915050615194565b50615496615746565b6000602082602086026020860160086107d05a03fa9050808015614d615750806154fa5760405162461bcd60e51b81526020600482015260156024820152741c185a5c9a5b99cb5bdc18dbd9194b59985a5b1959605a1b60448201526064016103f6565b505115159695505050505050565b82805482825590600052602060002090810192821561555d579160200282015b8281111561555d57825182546001600160a01b0319166001600160a01b03909116178255602090920191600190910190615528565b50615569929150615764565b5090565b82805482825590600052602060002090810192821561555d579160200282015b8281111561555d57825182559160200191906001019061558d565b82805482825590600052602060002090601f0160209004810192821561555d5791602002820160005b8382111561560e57835183826101000a81548160ff02191690831515021790555092602001926001016020816000010492830192600103026155d1565b801561563b5782816101000a81549060ff021916905560010160208160000104928301926001030261560e565b5050615569929150615764565b6040805160a081019091526000606082018181526080830191909152815260208101615672615726565b8152602001615694604051806040016040528060008152602001600081525090565b905290565b6040805160e08101909152600060a0820181815260c08301919091528152602081016156c3615726565b81526020016156d0615726565b81526020016156dd615726565b8152602001606081525090565b60405180606001604052806003906020820280368337509192915050565b60405180608001604052806004906020820280368337509192915050565b6040518060400160405280615739615779565b8152602001615694615779565b60405180602001604052806001906020820280368337509192915050565b5b808211156155695760008155600101615765565b60405180604001604052806002906020820280368337509192915050565b80356001600160a01b03811681146157ae57600080fd5b919050565b600082601f8301126157c3578081fd5b813560206157d86157d383615d37565b615d07565b80838252828201915082860187848660051b89010111156157f7578586fd5b855b8581101561581c5761580a82615797565b845292840192908401906001016157f9565b5090979650505050505050565b600082601f830112615839578081fd5b615841615cdf565b808385608086011115615852578384fd5b835b600281101561587e576158678783615889565b845260209093019260409190910190600101615854565b509095945050505050565b600082601f830112615899578081fd5b6158a1615cdf565b8083856040860111156158b2578384fd5b835b600281101561587e5781358452602093840193909101906001016158b4565b600082601f8301126158e3578081fd5b604051608081018181106001600160401b038211171561590557615905615f02565b604052808360808101861015615919578384fd5b835b600481101561593a57813583526020928301929091019060010161591b565b509195945050505050565b600060208284031215615956578081fd5b61595f82615797565b9392505050565b6000806000806000806101c0878903121561597f578182fd5b61598887615797565b955061599660208801615797565b94506159a58860408901615889565b93506159b48860808901615829565b92506159c4886101008901615889565b91506159d48861014089016158d3565b90509295509295509295565b600080604083850312156159f2578182fd5b6159fb83615797565b91506020808401356001600160401b03811115615a16578283fd5b8401601f81018613615a26578283fd5b8035615a346157d382615d37565b80828252848201915084840189868560051b8701011115615a53578687fd5b8694505b83851015615a75578035835260019490940193918501918501615a57565b5080955050505050509250929050565b60008060408385031215615a97578182fd5b615aa083615797565b946020939093013593505050565b600060208284031215615abf578081fd5b81356001600160401b03811115615ad4578182fd5b612115848285016157b3565b60008060008060808587031215615af5578384fd5b84356001600160401b03811115615b0a578485fd5b615b16878288016157b3565b9450506020850135925060408501359150615b3360608601615797565b905092959194509250565b6000806000806101808587031215615b54578182fd5b615b5e8686615889565b9350615b6d8660408701615829565b9250615b7c8660c08701615889565b9150615b338661010087016158d3565b6020808252825182820181905260009190848201906040850190845b81811015615bcd5783516001600160a01b031683529284019291840191600101615ba8565b50909695505050505050565b6020808252825182820181905260009190848201906040850190845b81811015615bcd578351151583529284019291840191600101615bf5565b6020808252825182820181905260009190848201906040850190845b81811015615bcd57835183529284019291840191600101615c2f565b60208082526031908201527f4f6e6c792064656469636174656420636f6f7264696e61746f7220697320616c6040820152701b1bddd959081d1bc81a5b9d195c9858dd607a1b606082015260800190565b60208082526023908201527f45706f6368206d75737420626520696e61637469766520616e642066696e69736040820152621a195960ea1b606082015260800190565b604080519081016001600160401b0381118282101715615d0157615d01615f02565b60405290565b604051601f8201601f191681016001600160401b0381118282101715615d2f57615d2f615f02565b604052919050565b60006001600160401b03821115615d5057615d50615f02565b5060051b60200190565b60008219821115615d6d57615d6d615ed6565b500190565b600082615d8157615d81615eec565b500490565b600181815b80851115615dc1578160001904821115615da757615da7615ed6565b80851615615db457918102915b93841c9390800290615d8b565b509250929050565b600061595f8383600082615ddf575060016114a2565b81615dec575060006114a2565b8160018114615e025760028114615e0c57615e28565b60019150506114a2565b60ff841115615e1d57615e1d615ed6565b50506001821b6114a2565b5060208310610133831016604e8410600b8410161715615e4b575081810a6114a2565b615e558383615d86565b8060001904821115615e6957615e69615ed6565b029392505050565b6000816000190483118215151615615e8b57615e8b615ed6565b500290565b600082821015615ea257615ea2615ed6565b500390565b6000600019821415615ebb57615ebb615ed6565b5060010190565b600082615ed157615ed1615eec565b500690565b634e487b7160e01b600052601160045260246000fd5b634e487b7160e01b600052601260045260246000fd5b634e487b7160e01b600052604160045260246000fdfea26469706673582212207c3f57c79d90328ccb51428f439904e28887e01f7dad2369f547063357a29ee164736f6c63430008040033",
  "linkReferences": {},
  "deployedLinkReferences": {}
}