{
  "_format": "hh-sol-artifact-1",
  "contractName": "EpochManager",
  "sourceName": "contracts/EpochManager.sol",
  "abi": [
    {
      "anonymous": false,
      "inputs": [
        {
          "indexed": false,
          "internalType": "address",
          "name": "",
          "type": "address"
        }
      ],
      "name": "EpochFinalized",
      "type": "event"
    },
    {
      "anonymous": false,
      "inputs": [
        {
          "indexed": false,
          "internalType": "address",
          "name": "",
          "type": "address"
        }
      ],
      "name": "EpochScheduled",
      "type": "event"
    },
    {
      "anonymous": false,
      "inputs": [
        {
          "indexed": false,
          "internalType": "address",
          "name": "",
          "type": "address"
        }
      ],
      "name": "EpochUpdated",
      "type": "event"
    },
    {
      "inputs": [
        {
          "internalType": "address",
          "name": "",
          "type": "address"
        }
      ],
      "name": "adminEpochs",
      "outputs": [
        {
          "internalType": "uint256",
          "name": "rewardBudget",
          "type": "uint256"
        },
        {
          "internalType": "uint256",
          "name": "startsAt",
          "type": "uint256"
        },
        {
          "internalType": "uint256",
          "name": "epochDuration",
          "type": "uint256"
        },
        {
          "internalType": "address",
          "name": "dedicatedCoordinator",
          "type": "address"
        },
        {
          "internalType": "uint256",
          "name": "rewardBudgetPerToken",
          "type": "uint256"
        }
      ],
      "stateMutability": "view",
      "type": "function"
    },
    {
      "inputs": [
        {
          "internalType": "address",
          "name": "addressOfEpochAdmin",
          "type": "address"
        }
      ],
      "name": "collectEpochReward",
      "outputs": [],
      "stateMutability": "nonpayable",
      "type": "function"
    },
    {
      "inputs": [
        {
          "internalType": "address",
          "name": "addressOfEpochAdmin",
          "type": "address"
        }
      ],
      "name": "getEpochMembers",
      "outputs": [
        {
          "internalType": "address[]",
          "name": "",
          "type": "address[]"
        }
      ],
      "stateMutability": "view",
      "type": "function"
    },
    {
      "inputs": [
        {
          "internalType": "address",
          "name": "addressOfEpochAdmin",
          "type": "address"
        }
      ],
      "name": "getEpochRevealedTokenAllocations",
      "outputs": [
        {
          "internalType": "uint256[]",
          "name": "",
          "type": "uint256[]"
        }
      ],
      "stateMutability": "view",
      "type": "function"
    },
    {
      "inputs": [
        {
          "internalType": "address",
          "name": "addressOfEpochAdmin",
          "type": "address"
        }
      ],
      "name": "getEpochRewardWithdrawals",
      "outputs": [
        {
          "internalType": "bool[]",
          "name": "",
          "type": "bool[]"
        }
      ],
      "stateMutability": "view",
      "type": "function"
    },
    {
      "inputs": [
        {
          "internalType": "address",
          "name": "addressOfEpochAdmin",
          "type": "address"
        }
      ],
      "name": "getEpochTokenAllocationCommitments",
      "outputs": [
        {
          "internalType": "bytes32[]",
          "name": "",
          "type": "bytes32[]"
        }
      ],
      "stateMutability": "view",
      "type": "function"
    },
    {
      "inputs": [
        {
          "internalType": "address",
          "name": "addressOfEpochAdmin",
          "type": "address"
        }
      ],
      "name": "getEpochTokenAllocationCommitmentsVerified",
      "outputs": [
        {
          "internalType": "bool[]",
          "name": "",
          "type": "bool[]"
        }
      ],
      "stateMutability": "view",
      "type": "function"
    },
    {
      "inputs": [
        {
          "internalType": "address",
          "name": "addressOfEpochAdmin",
          "type": "address"
        }
      ],
      "name": "isAllTokenAllocationCommitmentsVerified",
      "outputs": [
        {
          "internalType": "bool",
          "name": "",
          "type": "bool"
        }
      ],
      "stateMutability": "view",
      "type": "function"
    },
    {
      "inputs": [
        {
          "internalType": "address",
          "name": "addressOfEpochAdmin",
          "type": "address"
        }
      ],
      "name": "isEpochActive",
      "outputs": [
        {
          "internalType": "bool",
          "name": "",
          "type": "bool"
        }
      ],
      "stateMutability": "view",
      "type": "function"
    },
    {
      "inputs": [
        {
          "internalType": "address",
          "name": "addressOfEpochAdmin",
          "type": "address"
        }
      ],
      "name": "isEpochFinalized",
      "outputs": [
        {
          "internalType": "bool",
          "name": "",
          "type": "bool"
        }
      ],
      "stateMutability": "view",
      "type": "function"
    },
    {
      "inputs": [
        {
          "internalType": "address",
          "name": "addressOfEpochAdmin",
          "type": "address"
        }
      ],
      "name": "isEpochFinished",
      "outputs": [
        {
          "internalType": "bool",
          "name": "",
          "type": "bool"
        }
      ],
      "stateMutability": "view",
      "type": "function"
    },
    {
      "inputs": [
        {
          "internalType": "address[]",
          "name": "members",
          "type": "address[]"
        },
        {
          "internalType": "uint256",
          "name": "startsAt",
          "type": "uint256"
        },
        {
          "internalType": "uint256",
          "name": "epochDuration",
          "type": "uint256"
        },
        {
          "internalType": "address",
          "name": "dedicatedCoordinator",
          "type": "address"
        }
      ],
      "name": "scheduleNewEpoch",
      "outputs": [],
      "stateMutability": "payable",
      "type": "function"
    },
    {
      "inputs": [
        {
          "internalType": "address",
          "name": "addressOfEpochAdmin",
          "type": "address"
        },
        {
          "internalType": "uint256[]",
          "name": "finalTokenAllocations",
          "type": "uint256[]"
        }
      ],
      "name": "submitRevealedTokenAllocations",
      "outputs": [],
      "stateMutability": "nonpayable",
      "type": "function"
    },
    {
      "inputs": [
        {
          "internalType": "address",
          "name": "addressOfEpochAdmin",
          "type": "address"
        },
        {
          "internalType": "address",
          "name": "addressOfEpochMember",
          "type": "address"
        },
        {
          "internalType": "uint256[2]",
          "name": "proofA",
          "type": "uint256[2]"
        },
        {
          "internalType": "uint256[2][2]",
          "name": "proofB",
          "type": "uint256[2][2]"
        },
        {
          "internalType": "uint256[2]",
          "name": "proofC",
          "type": "uint256[2]"
        },
        {
          "internalType": "uint256[4]",
          "name": "proofInput",
          "type": "uint256[4]"
        }
      ],
      "name": "submitTokenAllocationCommitmentProof",
      "outputs": [],
      "stateMutability": "nonpayable",
      "type": "function"
    },
    {
      "inputs": [
        {
          "internalType": "address[]",
          "name": "members",
          "type": "address[]"
        }
      ],
      "name": "updateEpochMembers",
      "outputs": [],
      "stateMutability": "nonpayable",
      "type": "function"
    },
    {
      "inputs": [
        {
          "internalType": "address",
          "name": "addressOfEpochAdmin",
          "type": "address"
        },
        {
          "internalType": "bytes32",
          "name": "commitment",
          "type": "bytes32"
        }
      ],
      "name": "updateTokenAllocationCommitment",
      "outputs": [],
      "stateMutability": "nonpayable",
      "type": "function"
    },
    {
      "inputs": [
        {
          "internalType": "uint256[2]",
          "name": "a",
          "type": "uint256[2]"
        },
        {
          "internalType": "uint256[2][2]",
          "name": "b",
          "type": "uint256[2][2]"
        },
        {
          "internalType": "uint256[2]",
          "name": "c",
          "type": "uint256[2]"
        },
        {
          "internalType": "uint256[4]",
          "name": "input",
          "type": "uint256[4]"
        }
      ],
      "name": "verifyProof",
      "outputs": [
        {
          "internalType": "bool",
          "name": "r",
          "type": "bool"
        }
      ],
      "stateMutability": "view",
      "type": "function"
    }
  ],
  "bytecode": "0x608060405234801561001057600080fd5b50615d2080620000216000396000f3fe6080604052600436106100ce5760003560e01c806304df4be6146100d35780630e4f7271146100f55780631cae27ea146101155780632ae0511a1461014a5780634e6f44c81461016a5780635a83d81b1461018a5780635fe8c13b146101b757806367f13aa1146101d75780637579887f146101f75780638f66cf121461020a578063900e1ada14610237578063b2dee82614610257578063be58e000146102db578063c239f14d146102fb578063c7d0cfdd1461031b578063e2115bf11461033b578063ff1843dc14610368575b600080fd5b3480156100df57600080fd5b506100f36100ee3660046156aa565b610388565b005b34801561010157600080fd5b506100f3610110366004615630565b610a2a565b34801561012157600080fd5b5061013561013036600461560f565b6111bd565b60405190151581526020015b60405180910390f35b34801561015657600080fd5b506100f3610165366004615778565b611402565b34801561017657600080fd5b5061013561018536600461560f565b611942565b34801561019657600080fd5b506101aa6101a536600461560f565b611a28565b60405161014191906158f1565b3480156101c357600080fd5b506101356101d2366004615808565b611d7c565b3480156101e357600080fd5b506101aa6101f236600461560f565b611eb1565b6100f36102053660046157aa565b6121fd565b34801561021657600080fd5b5061022a61022536600461560f565b6123a8565b60405161014191906158b7565b34801561024357600080fd5b5061022a61025236600461560f565b6126fb565b34801561026357600080fd5b506102aa61027236600461560f565b600060208190529081526040902080546004820154600583015460068401546009909401549293919290916001600160a01b03169085565b604080519586526020860194909452928401919091526001600160a01b03166060830152608082015260a001610141565b3480156102e757600080fd5b506101356102f636600461560f565b612a4c565b34801561030757600080fd5b506100f361031636600461574f565b612c8b565b34801561032757600080fd5b5061013561033636600461560f565b613269565b34801561034757600080fd5b5061035b61035636600461560f565b61332f565b604051610141919061586a565b34801561037457600080fd5b506100f361038336600461560f565b613688565b6001600160a01b0382811660009081526020819052604090206006015483911633146103cf5760405162461bcd60e51b81526004016103c690615998565b60405180910390fd5b6001600160a01b0383166000908152602081815260409182902082516101408101845281548152600182018054855181860281018601909652808652889561064f959394938581019391929083018282801561045457602002820191906000526020600020905b81546001600160a01b03168152600190910190602001808311610436575b50505050508152602001600282018054806020026020016040519081016040528092919081815260200182805480156104ac57602002820191906000526020600020905b815481526020019060010190808311610498575b505050505081526020016003820180548060200260200160405190810160405280929190818152602001828054801561052457602002820191906000526020600020906000905b825461010083900a900460ff1615158152602060019283018181049485019490930390920291018084116104f35790505b5050505050815260200160048201548152602001600582015481526020016006820160009054906101000a90046001600160a01b03166001600160a01b03166001600160a01b03168152602001600782018054806020026020016040519081016040528092919081815260200182805480156105bf57602002820191906000526020600020905b8154815260200190600101908083116105ab575b505050505081526020016008820180548060200260200160405190810160405280929190818152602001828054801561063757602002820191906000526020600020906000905b825461010083900a900460ff1615158152602060019283018181049485019490930390920291018084116106065790505b50505050508152602001600982015481525050613f6c565b1580156108d457506001600160a01b03811660009081526020818152604091829020825161014081018452815481526001820180548551818602810186019096528086526108d4959294858101939291908301828280156106d957602002820191906000526020600020905b81546001600160a01b031681526001909101906020018083116106bb575b505050505081526020016002820180548060200260200160405190810160405280929190818152602001828054801561073157602002820191906000526020600020905b81548152602001906001019080831161071d575b50505050508152602001600382018054806020026020016040519081016040528092919081815260200182805480156107a957602002820191906000526020600020906000905b825461010083900a900460ff1615158152602060019283018181049485019490930390920291018084116107785790505b5050505050815260200160048201548152602001600582015481526020016006820160009054906101000a90046001600160a01b03166001600160a01b03166001600160a01b031681526020016007820180548060200260200160405190810160405280929190818152602001828054801561084457602002820191906000526020600020905b815481526020019060010190808311610830575b50505050508152602001600882018054806020026020016040519081016040528092919081815260200182805480156108bc57602002820191906000526020600020906000905b825461010083900a900460ff16151581526020600192830181810494850194909303909202910180841161088b5790505b50505050508152602001600982015481525050613f9e565b6108f05760405162461bcd60e51b81526004016103c6906159e9565b6108f984611942565b61095f5760405162461bcd60e51b815260206004820152603160248201527f416c6c20746f6b656e20616c6c6f636174696f6e20636f6d6d69746d656e7473604482015270081b5d5cdd081899481d995c9a599a5959607a1b60648201526084016103c6565b6001600160a01b0384166000908152602081905260408120905b84518110156109eb578481815181106109a257634e487b7160e01b600052603260045260246000fd5b60200260200101518260070182815481106109cd57634e487b7160e01b600052603260045260246000fd5b600091825260209091200155806109e381615c59565b915050610979565b507f438ac50c2d6913b7e86c868b76ff17285d92626dba84f2e30cd3e40936d9e08085604051610a1b9190615856565b60405180910390a15050505050565b6001600160a01b038681166000908152602081905260409020600601548791163314610a685760405162461bcd60e51b81526004016103c690615998565b6001600160a01b03871660009081526020818152604091829020825161014081018452815481526001820180548551818602810186019096528086528c95610caa9593949385810193919290830182828015610454576020028201919060005260206000209081546001600160a01b031681526001909101906020018083116104365750505050508152602001600282018054806020026020016040519081016040528092919081815260200182805480156104ac5760200282019190600052602060002090815481526020019060010190808311610498575050505050815260200160038201805480602002602001604051908101604052809291908181526020018280548015610524576000918252602091829020805460ff16151584529082028301929091600191018084116104f35790505050505050815260200160048201548152602001600582015481526020016006820160009054906101000a90046001600160a01b03166001600160a01b03166001600160a01b03168152602001600782018054806020026020016040519081016040528092919081815260200182805480156105bf57602002820191906000526020600020908154815260200190600101908083116105ab575050505050815260200160088201805480602002602001604051908101604052809291908181526020018280548015610637576000918252602091829020805460ff161515845290820283019290916001910180841161060657905050505050508152602001600982015481525050613f6c565b610cc65760405162461bcd60e51b81526004016103c690615a2c565b6001600160a01b03881660009081526020818152604080832081516101408101835281548152600182018054845181870281018701909552808552929594610f4a9492938793858301939092909190830182828015610d4e57602002820191906000526020600020905b81546001600160a01b03168152600190910190602001808311610d30575b5050505050815260200160028201805480602002602001604051908101604052809291908181526020018280548015610da657602002820191906000526020600020905b815481526020019060010190808311610d92575b5050505050815260200160038201805480602002602001604051908101604052809291908181526020018280548015610e1e57602002820191906000526020600020906000905b825461010083900a900460ff161515815260206001928301818104948501949093039092029101808411610ded5790505b5050505050815260200160048201548152602001600582015481526020016006820160009054906101000a90046001600160a01b03166001600160a01b03166001600160a01b0316815260200160078201805480602002602001604051908101604052809291908181526020018280548015610eb957602002820191906000526020600020905b815481526020019060010190808311610ea5575b5050505050815260200160088201805480602002602001604051908101604052809291908181526020018280548015610f3157602002820191906000526020600020906000905b825461010083900a900460ff161515815260206001928301818104948501949093039092029101808411610f005790505b505050505081526020016009820154815250508a613fbc565b90506000198113610f6d5760405162461bcd60e51b81526004016103c690615a5a565b610f7988888888611d7c565b610fbb5760405162461bcd60e51b8152602060048201526013602482015272141c9bdbd9881b5d5cdd081899481d985b1a59606a1b60448201526064016103c6565b610ff1826002018281548110610fe157634e487b7160e01b600052603260045260246000fd5b9060005260206000200154614036565b6020860151146110775760405162461bcd60e51b815260206004820152604560248201527f707562546f6b656e416c6c6f636174696f6e486173682070726f6f6620696e7060448201527f757420646f6573206e6f74206d61746368206578697374696e6720636f6d6d696064820152641d1b595b9d60da1b608482015260a4016103c6565b604085015181146110dd5760405162461bcd60e51b815260206004820152602a60248201527f616c6c6f636174696e674d656d6265724964782070726f6f6620696e707574206044820152691a5cc81a5b9d985b1a5960b21b60648201526084016103c6565b600182015460608601511461113e5760405162461bcd60e51b815260206004820152602160248201527f6e756d4d656d626572732070726f6f6620696e70757420697320696e76616c696044820152601960fa1b60648201526084016103c6565b600182600301828154811061116357634e487b7160e01b600052603260045260246000fd5b90600052602060002090602091828204019190066101000a81548160ff021916908315150217905550600080516020615ccb8339815191528a6040516111a99190615856565b60405180910390a150505050505050505050565b6001600160a01b038116600090815260208181526040808320815161014081018352815481526001820180548451818702810187019095528085526113fc9592948584019390929190830182828015610454576020028201919060005260206000209081546001600160a01b031681526001909101906020018083116104365750505050508152602001600282018054806020026020016040519081016040528092919081815260200182805480156104ac5760200282019190600052602060002090815481526020019060010190808311610498575050505050815260200160038201805480602002602001604051908101604052809291908181526020018280548015610524576000918252602091829020805460ff16151584529082028301929091600191018084116104f35790505050505050815260200160048201548152602001600582015481526020016006820160009054906101000a90046001600160a01b03166001600160a01b03166001600160a01b03168152602001600782018054806020026020016040519081016040528092919081815260200182805480156105bf57602002820191906000526020600020908154815260200190600101908083116105ab575050505050815260200160088201805480602002602001604051908101604052809291908181526020018280548015610637576000918252602091829020805460ff161515845290820283019290916001910180841161060657905050505050508152602001600982015481525050613f6c565b92915050565b33600081815260208181526040918290208251610140810184528154815260018201805485518186028101860190965280865261163895929485810193929190830182828015610454576020028201919060005260206000209081546001600160a01b031681526001909101906020018083116104365750505050508152602001600282018054806020026020016040519081016040528092919081815260200182805480156104ac5760200282019190600052602060002090815481526020019060010190808311610498575050505050815260200160038201805480602002602001604051908101604052809291908181526020018280548015610524576000918252602091829020805460ff16151584529082028301929091600191018084116104f35790505050505050815260200160048201548152602001600582015481526020016006820160009054906101000a90046001600160a01b03166001600160a01b03166001600160a01b03168152602001600782018054806020026020016040519081016040528092919081815260200182805480156105bf57602002820191906000526020600020908154815260200190600101908083116105ab575050505050815260200160088201805480602002602001604051908101604052809291908181526020018280548015610637576000918252602091829020805460ff161515845290820283019290916001910180841161060657905050505050508152602001600982015481525050613f6c565b15801561188157506001600160a01b038116600090815260208181526040918290208251610140810184528154815260018201805485518186028101860190965280865261187f959294858101939291908301828280156106d9576020028201919060005260206000209081546001600160a01b031681526001909101906020018083116106bb575050505050815260200160028201805480602002602001604051908101604052809291908181526020018280548015610731576020028201919060005260206000209081548152602001906001019080831161071d5750505050508152602001600382018054806020026020016040519081016040528092919081815260200182805480156107a9576000918252602091829020805460ff16151584529082028301929091600191018084116107785790505050505050815260200160048201548152602001600582015481526020016006820160009054906101000a90046001600160a01b03166001600160a01b03166001600160a01b031681526020016007820180548060200260200160405190810160405280929190818152602001828054801561084457602002820191906000526020600020908154815260200190600101908083116108305750505050508152602001600882018054806020026020016040519081016040528092919081815260200182805480156108bc576000918252602091829020805460ff161515845290820283019290916001910180841161088b57905050505050508152602001600982015481525050613f9e565b155b6118e05760405162461bcd60e51b815260206004820152602a60248201527f45706f6368206d75737420626520696e61637469766520616e64206e6f742079604482015269195d081cdd185c9d195960b21b60648201526084016103c6565b60028251101580156118f45750600f825111155b6119105760405162461bcd60e51b81526004016103c690615929565b611919826140c2565b600080516020615ccb833981519152336040516119369190615856565b60405180910390a15050565b6001600160a01b038116600090815260208181526040808320600301805482518185028101850190935280835284938301828280156119c057602002820191906000526020600020906000905b825461010083900a900460ff16151581526020600192830181810494850194909303909202910180841161198f5790505b5050505050905060005b8151811015611a1e578181815181106119f357634e487b7160e01b600052603260045260246000fd5b6020908102919091010151611a0c575060009392505050565b80611a1681615c59565b9150506119ca565b5060019392505050565b6001600160a01b038116600090815260208181526040808320815161014081018352815481526001820180548451818702810187019095528085526060969592948584019390929190830182828015611aaa57602002820191906000526020600020905b81546001600160a01b03168152600190910190602001808311611a8c575b5050505050815260200160028201805480602002602001604051908101604052809291908181526020018280548015611b0257602002820191906000526020600020905b815481526020019060010190808311611aee575b5050505050815260200160038201805480602002602001604051908101604052809291908181526020018280548015611b7a57602002820191906000526020600020906000905b825461010083900a900460ff161515815260206001928301818104948501949093039092029101808411611b495790505b5050505050815260200160048201548152602001600582015481526020016006820160009054906101000a90046001600160a01b03166001600160a01b03166001600160a01b0316815260200160078201805480602002602001604051908101604052809291908181526020018280548015611c1557602002820191906000526020600020905b815481526020019060010190808311611c01575b5050505050815260200160088201805480602002602001604051908101604052809291908181526020018280548015611c8d57602002820191906000526020600020906000905b825461010083900a900460ff161515815260206001928301818104948501949093039092029101808411611c5c5790505b50505050508152602001600982015481525050905060008160400151516001600160401b03811115611ccf57634e487b7160e01b600052604160045260246000fd5b604051908082528060200260200182016040528015611cf8578160200160208202803683370190505b50905060005b826040015151811015611d745782604001518181518110611d2f57634e487b7160e01b600052603260045260246000fd5b6020026020010151828281518110611d5757634e487b7160e01b600052603260045260246000fd5b602090810291909101015280611d6c81615c59565b915050611cfe565b509392505050565b6000611d866151e1565b60408051808201825287518152602080890151818301529083528151608080820184528851518285019081528951840151606084015282528351808501855289840180515182525184015181850152828401528483019190915282518084018452875181528783015181840152848401528251600480825260a0820190945260009390929091908301908036833701905050905060005b6004811015611e8857848160048110611e4657634e487b7160e01b600052603260045260246000fd5b6020020151828281518110611e6b57634e487b7160e01b600052603260045260246000fd5b602090810291909101015280611e8081615c59565b915050611e1d565b50611e9381836142b9565b611ea257600192505050611ea9565b6000925050505b949350505050565b6001600160a01b038116600090815260208181526040808320815161014081018352815481526001820180548451818702810187019095528085526060969592948584019390929190830182828015611f3357602002820191906000526020600020905b81546001600160a01b03168152600190910190602001808311611f15575b5050505050815260200160028201805480602002602001604051908101604052809291908181526020018280548015611f8b57602002820191906000526020600020905b815481526020019060010190808311611f77575b505050505081526020016003820180548060200260200160405190810160405280929190818152602001828054801561200357602002820191906000526020600020906000905b825461010083900a900460ff161515815260206001928301818104948501949093039092029101808411611fd25790505b5050505050815260200160048201548152602001600582015481526020016006820160009054906101000a90046001600160a01b03166001600160a01b03166001600160a01b031681526020016007820180548060200260200160405190810160405280929190818152602001828054801561209e57602002820191906000526020600020905b81548152602001906001019080831161208a575b505050505081526020016008820180548060200260200160405190810160405280929190818152602001828054801561211657602002820191906000526020600020906000905b825461010083900a900460ff1615158152602060019283018181049485019490930390920291018084116120e55790505b50505050508152602001600982015481525050905060008160400151516001600160401b0381111561215857634e487b7160e01b600052604160045260246000fd5b604051908082528060200260200182016040528015612181578160200160208202803683370190505b50905060005b8260e0015151811015611d74578260e0015181815181106121b857634e487b7160e01b600052603260045260246000fd5b60200260200101518282815181106121e057634e487b7160e01b600052603260045260246000fd5b6020908102919091010152806121f581615c59565b915050612187565b600034116122645760405162461bcd60e51b815260206004820152602e60248201527f4d7573742073656e6420736f6d652066756e647320746f20616c6c6f6361746560448201526d10323ab934b7339032b837b1b41760911b60648201526084016103c6565b60028451101580156122785750600f845111155b6122945760405162461bcd60e51b81526004016103c690615929565b4283116122e35760405162461bcd60e51b815260206004820152601e60248201527f45706f6368206d75737420737461727420696e2074686520667574757265000060448201526064016103c6565b6001600160a01b0381166123335760405162461bcd60e51b815260206004820152601760248201527626bab9ba1030b9b9b4b3b71031b7b7b93234b730ba37b960491b60448201526064016103c6565b33600090815260208190526040902034815560048101849055600581018390556006810180546001600160a01b0319166001600160a01b038416179055612379856140c2565b7f98c2cbe6315338eb28f0caede11296b74c13dd1149fff9d2c507593256b3a48033604051610a1b9190615856565b6001600160a01b03811660009081526020818152604080832081516101408101835281548152600182018054845181870281018701909552808552606096959294858401939092919083018282801561242a57602002820191906000526020600020905b81546001600160a01b0316815260019091019060200180831161240c575b505050505081526020016002820180548060200260200160405190810160405280929190818152602001828054801561248257602002820191906000526020600020905b81548152602001906001019080831161246e575b50505050508152602001600382018054806020026020016040519081016040528092919081815260200182805480156124fa57602002820191906000526020600020906000905b825461010083900a900460ff1615158152602060019283018181049485019490930390920291018084116124c95790505b5050505050815260200160048201548152602001600582015481526020016006820160009054906101000a90046001600160a01b03166001600160a01b03166001600160a01b031681526020016007820180548060200260200160405190810160405280929190818152602001828054801561259557602002820191906000526020600020905b815481526020019060010190808311612581575b505050505081526020016008820180548060200260200160405190810160405280929190818152602001828054801561260d57602002820191906000526020600020906000905b825461010083900a900460ff1615158152602060019283018181049485019490930390920291018084116125dc5790505b50505050508152602001600982015481525050905060008160400151516001600160401b0381111561264f57634e487b7160e01b600052604160045260246000fd5b604051908082528060200260200182016040528015612678578160200160208202803683370190505b50905060005b82610100015151811015611d745782610100015181815181106126b157634e487b7160e01b600052603260045260246000fd5b60200260200101518282815181106126d957634e487b7160e01b600052603260045260246000fd5b91151560209283029190910190910152806126f381615c59565b91505061267e565b6001600160a01b03811660009081526020818152604080832081516101408101835281548152600182018054845181870281018701909552808552606096959294858401939092919083018282801561277d57602002820191906000526020600020905b81546001600160a01b0316815260019091019060200180831161275f575b50505050508152602001600282018054806020026020016040519081016040528092919081815260200182805480156127d557602002820191906000526020600020905b8154815260200190600101908083116127c1575b505050505081526020016003820180548060200260200160405190810160405280929190818152602001828054801561284d57602002820191906000526020600020906000905b825461010083900a900460ff16151581526020600192830181810494850194909303909202910180841161281c5790505b5050505050815260200160048201548152602001600582015481526020016006820160009054906101000a90046001600160a01b03166001600160a01b03166001600160a01b03168152602001600782018054806020026020016040519081016040528092919081815260200182805480156128e857602002820191906000526020600020905b8154815260200190600101908083116128d4575b505050505081526020016008820180548060200260200160405190810160405280929190818152602001828054801561296057602002820191906000526020600020906000905b825461010083900a900460ff16151581526020600192830181810494850194909303909202910180841161292f5790505b50505050508152602001600982015481525050905060008160400151516001600160401b038111156129a257634e487b7160e01b600052604160045260246000fd5b6040519080825280602002602001820160405280156129cb578160200160208202803683370190505b50905060005b826060015151811015611d745782606001518181518110612a0257634e487b7160e01b600052603260045260246000fd5b6020026020010151828281518110612a2a57634e487b7160e01b600052603260045260246000fd5b9115156020928302919091019091015280612a4481615c59565b9150506129d1565b6001600160a01b038116600090815260208181526040808320815161014081018352815481526001820180548451818702810187019095528085526113fc95929485840193909291908301828280156106d9576020028201919060005260206000209081546001600160a01b031681526001909101906020018083116106bb575050505050815260200160028201805480602002602001604051908101604052809291908181526020018280548015610731576020028201919060005260206000209081548152602001906001019080831161071d5750505050508152602001600382018054806020026020016040519081016040528092919081815260200182805480156107a9576000918252602091829020805460ff16151584529082028301929091600191018084116107785790505050505050815260200160048201548152602001600582015481526020016006820160009054906101000a90046001600160a01b03166001600160a01b03166001600160a01b031681526020016007820180548060200260200160405190810160405280929190818152602001828054801561084457602002820191906000526020600020908154815260200190600101908083116108305750505050508152602001600882018054806020026020016040519081016040528092919081815260200182805480156108bc576000918252602091829020805460ff161515845290820283019290916001910180841161088b57905050505050508152602001600982015481525050613f9e565b6001600160a01b03821660009081526020818152604091829020825161014081018452815481526001820180548551818602810186019096528086528795612ecd9593949385810193919290830182828015610454576020028201919060005260206000209081546001600160a01b031681526001909101906020018083116104365750505050508152602001600282018054806020026020016040519081016040528092919081815260200182805480156104ac5760200282019190600052602060002090815481526020019060010190808311610498575050505050815260200160038201805480602002602001604051908101604052809291908181526020018280548015610524576000918252602091829020805460ff16151584529082028301929091600191018084116104f35790505050505050815260200160048201548152602001600582015481526020016006820160009054906101000a90046001600160a01b03166001600160a01b03166001600160a01b03168152602001600782018054806020026020016040519081016040528092919081815260200182805480156105bf57602002820191906000526020600020908154815260200190600101908083116105ab575050505050815260200160088201805480602002602001604051908101604052809291908181526020018280548015610637576000918252602091829020805460ff161515845290820283019290916001910180841161060657905050505050508152602001600982015481525050613f6c565b612ee95760405162461bcd60e51b81526004016103c690615a2c565b6001600160a01b0383166000908152602081815260408083208151610140810183528154815260018201805484518187028101870190955280855292959461316d9492938793858301939092909190830182828015612f7157602002820191906000526020600020905b81546001600160a01b03168152600190910190602001808311612f53575b5050505050815260200160028201805480602002602001604051908101604052809291908181526020018280548015612fc957602002820191906000526020600020905b815481526020019060010190808311612fb5575b505050505081526020016003820180548060200260200160405190810160405280929190818152602001828054801561304157602002820191906000526020600020906000905b825461010083900a900460ff1615158152602060019283018181049485019490930390920291018084116130105790505b5050505050815260200160048201548152602001600582015481526020016006820160009054906101000a90046001600160a01b03166001600160a01b03166001600160a01b03168152602001600782018054806020026020016040519081016040528092919081815260200182805480156130dc57602002820191906000526020600020905b8154815260200190600101908083116130c8575b505050505081526020016008820180548060200260200160405190810160405280929190818152602001828054801561315457602002820191906000526020600020906000905b825461010083900a900460ff1615158152602060019283018181049485019490930390920291018084116131235790505b5050505050815260200160098201548152505033613fbc565b905060001981136131cc5760405162461bcd60e51b8152602060048201526024808201527f436f6d6d69746d656e74206d7573742062652066726f6d2045706f6368206d6560448201526336b132b960e11b60648201526084016103c6565b838260020182815481106131f057634e487b7160e01b600052603260045260246000fd5b9060005260206000200181905550600082600301828154811061322357634e487b7160e01b600052603260045260246000fd5b90600052602060002090602091828204019190066101000a81548160ff021916908315150217905550600080516020615ccb83398151915285604051610a1b9190615856565b6001600160a01b038116600090815260208181526040808320600701805482518185028101850190935280835284938301828280156132c757602002820191906000526020600020905b8154815260200190600101908083116132b3575b5050505050905060005b8151811015613325578181815181106132fa57634e487b7160e01b600052603260045260246000fd5b6020026020010151600014613313575060019392505050565b8061331d81615c59565b9150506132d1565b5060009392505050565b6001600160a01b0381166000908152602081815260408083208151610140810183528154815260018201805484518187028101870190955280855260609695929485840193909291908301828280156133b157602002820191906000526020600020905b81546001600160a01b03168152600190910190602001808311613393575b505050505081526020016002820180548060200260200160405190810160405280929190818152602001828054801561340957602002820191906000526020600020905b8154815260200190600101908083116133f5575b505050505081526020016003820180548060200260200160405190810160405280929190818152602001828054801561348157602002820191906000526020600020906000905b825461010083900a900460ff1615158152602060019283018181049485019490930390920291018084116134505790505b5050505050815260200160048201548152602001600582015481526020016006820160009054906101000a90046001600160a01b03166001600160a01b03166001600160a01b031681526020016007820180548060200260200160405190810160405280929190818152602001828054801561351c57602002820191906000526020600020905b815481526020019060010190808311613508575b505050505081526020016008820180548060200260200160405190810160405280929190818152602001828054801561359457602002820191906000526020600020906000905b825461010083900a900460ff1615158152602060019283018181049485019490930390920291018084116135635790505b50505050508152602001600982015481525050905060008160200151516001600160401b038111156135d657634e487b7160e01b600052604160045260246000fd5b6040519080825280602002602001820160405280156135ff578160200160208202803683370190505b50905060005b826020015151811015611d74578260200151818151811061363657634e487b7160e01b600052603260045260246000fd5b602002602001015182828151811061365e57634e487b7160e01b600052603260045260246000fd5b6001600160a01b03909216602092830291909101909101528061368081615c59565b915050613605565b6001600160a01b038116600090815260208181526040918290208251610140810184528154815260018201805485518186028101860190965280865286956138ca9593949385810193919290830182828015610454576020028201919060005260206000209081546001600160a01b031681526001909101906020018083116104365750505050508152602001600282018054806020026020016040519081016040528092919081815260200182805480156104ac5760200282019190600052602060002090815481526020019060010190808311610498575050505050815260200160038201805480602002602001604051908101604052809291908181526020018280548015610524576000918252602091829020805460ff16151584529082028301929091600191018084116104f35790505050505050815260200160048201548152602001600582015481526020016006820160009054906101000a90046001600160a01b03166001600160a01b03166001600160a01b03168152602001600782018054806020026020016040519081016040528092919081815260200182805480156105bf57602002820191906000526020600020908154815260200190600101908083116105ab575050505050815260200160088201805480602002602001604051908101604052809291908181526020018280548015610637576000918252602091829020805460ff161515845290820283019290916001910180841161060657905050505050508152602001600982015481525050613f6c565b158015613b1157506001600160a01b0381166000908152602081815260409182902082516101408101845281548152600182018054855181860281018601909652808652613b11959294858101939291908301828280156106d9576020028201919060005260206000209081546001600160a01b031681526001909101906020018083116106bb575050505050815260200160028201805480602002602001604051908101604052809291908181526020018280548015610731576020028201919060005260206000209081548152602001906001019080831161071d5750505050508152602001600382018054806020026020016040519081016040528092919081815260200182805480156107a9576000918252602091829020805460ff16151584529082028301929091600191018084116107785790505050505050815260200160048201548152602001600582015481526020016006820160009054906101000a90046001600160a01b03166001600160a01b03166001600160a01b031681526020016007820180548060200260200160405190810160405280929190818152602001828054801561084457602002820191906000526020600020908154815260200190600101908083116108305750505050508152602001600882018054806020026020016040519081016040528092919081815260200182805480156108bc576000918252602091829020805460ff161515845290820283019290916001910180841161088b57905050505050508152602001600982015481525050613f9e565b613b2d5760405162461bcd60e51b81526004016103c6906159e9565b613b3682613269565b613b9b5760405162461bcd60e51b815260206004820152603060248201527f45706f6368206d7573742062652066696e616c697a6564206265666f7265207760448201526f69746864726177696e672066756e647360801b60648201526084016103c6565b6001600160a01b03821660009081526020818152604080832081516101408101835281548152600182018054845181870281018701909552808552929594613de19492938793858301939092909190830182828015612f71576020028201919060005260206000209081546001600160a01b03168152600190910190602001808311612f53575050505050815260200160028201805480602002602001604051908101604052809291908181526020018280548015612fc95760200282019190600052602060002090815481526020019060010190808311612fb5575050505050815260200160038201805480602002602001604051908101604052809291908181526020018280548015613041576000918252602091829020805460ff16151584529082028301929091600191018084116130105790505050505050815260200160048201548152602001600582015481526020016006820160009054906101000a90046001600160a01b03166001600160a01b03166001600160a01b03168152602001600782018054806020026020016040519081016040528092919081815260200182805480156130dc57602002820191906000526020600020908154815260200190600101908083116130c8575050505050815260200160088201805480602002602001604051908101604052809291908181526020018280548015613154576000918252602091829020805460ff16151584529082028301929091600191018084116131235790505050505050815260200160098201548152505033613fbc565b90506000198113613e045760405162461bcd60e51b81526004016103c690615a5a565b816008018181548110613e2757634e487b7160e01b600052603260045260246000fd5b90600052602060002090602091828204019190069054906101000a900460ff1615613ea55760405162461bcd60e51b815260206004820152602860248201527f526577617264206d757374206e6f742068617665206265656e2077697468647260448201526730bbb7103cb2ba1760c11b60648201526084016103c6565b6001826008018281548110613eca57634e487b7160e01b600052603260045260246000fd5b90600052602060002090602091828204019190066101000a81548160ff021916908315150217905550336001600160a01b03166108fc8360090154846007018481548110613f2857634e487b7160e01b600052603260045260246000fd5b9060005260206000200154613f3d9190615c23565b6040518115909202916000818181858888f19350505050158015613f65573d6000803e3d6000fd5b5050505050565b600042826080015111613f9657428260a001518360800151613f8e9190615b0c565b101592915050565b506000919050565b6000613fa982613f6c565b1580156113fc5750506080015142101590565b6000805b83602001515181101561402b5783602001518181518110613ff157634e487b7160e01b600052603260045260246000fd5b60200260200101516001600160a01b0316836001600160a01b031614156140195790506113fc565b8061402381615c59565b915050613fc0565b506000199392505050565b60008060005b60208110156140bb57614050816001615b0c565b61405b906020615c42565b614066906008615c23565b614071906002615b7b565b84826020811061409157634e487b7160e01b600052603260045260246000fd5b61409d9291901a615c23565b6140a79083615b0c565b9150806140b381615c59565b91505061403c565b5092915050565b33600090815260208181526040909120825190916140e7916001840191850190615213565b5081516001600160401b0381111561410f57634e487b7160e01b600052604160045260246000fd5b604051908082528060200260200182016040528015614138578160200160208202803683370190505b50805161414f916002840191602090910190615278565b5081516001600160401b0381111561417757634e487b7160e01b600052604160045260246000fd5b6040519080825280602002602001820160405280156141a0578160200160208202803683370190505b5080516141b79160038401916020909101906152b3565b5081516001600160401b038111156141df57634e487b7160e01b600052604160045260246000fd5b604051908082528060200260200182016040528015614208578160200160208202803683370190505b50805161421f916007840191602090910190615278565b5081516001600160401b0381111561424757634e487b7160e01b600052604160045260246000fd5b604051908082528060200260200182016040528015614270578160200160208202803683370190505b5080516142879160088401916020909101906152b3565b50600181015460009061429c90612710615c23565b82549091506142ac908290615b24565b8260090181905550505050565b60007f30644e72e131a029b85045b68181585d2833e84879b9709143e1f593f0000001816142e56144e1565b9050806080015151855160016142fb9190615b0c565b1461433d5760405162461bcd60e51b81526020600482015260126024820152711d995c9a599a595c8b5898590b5a5b9c1d5d60721b60448201526064016103c6565b604080518082019091526000808252602082018190525b8651811015614458578387828151811061437e57634e487b7160e01b600052603260045260246000fd5b6020026020010151106143d35760405162461bcd60e51b815260206004820152601f60248201527f76657269666965722d6774652d736e61726b2d7363616c61722d6669656c640060448201526064016103c6565b6144448261443f85608001518460016143ec9190615b0c565b8151811061440a57634e487b7160e01b600052603260045260246000fd5b60200260200101518a858151811061443257634e487b7160e01b600052603260045260246000fd5b6020026020010151614a1b565b614aab565b91508061445081615c59565b915050614354565b5061448f81836080015160008151811061448257634e487b7160e01b600052603260045260246000fd5b6020026020010151614aab565b90506144c56144a18660000151614b37565b8660200151846000015185602001518587604001518b604001518960600151614bca565b6144d557600193505050506113fc565b50600095945050505050565b6144e9615353565b6040805180820182527f2d4d9aa7e302d9df41749d5507949d05dbea33fbb16c643b22f599a2be6df2e281527f14bedd503c37ceb061d8ec60209fe345ce89830a19230301f076caff004d19266020808301919091529083528151608080820184527f0967032fcbf776d1afc985f88877f182d38480a653f2decaa9794cbc3bf3060c8285019081527f0e187847ad4c798374d0d6732bf501847dd68bc0e071241e0213bc7fc13db7ab606080850191909152908352845180860186527f304cfbd1e08a704a99f5e847d93f8c3caafddec46b7a0d379da69a4d112346a781527f1739c1b1a457a8c7313123d24d2f9192f896b7c63eea05a9d57f06547ad0cec8818601528385015285840192909252835180820185527f198e9393920d483a7260bfb731fb5d25f1aa493335a9e71297e485b7aef312c28186019081527f1800deef121f1e76426a00665e5c4479674322d4f75edadd46debd5cd992f6ed828501528152845180860186527f090689d0585ff075ec9e99ad690c3395bc4b313370b38ef355acdadcd122975b81527f12c85ea5db8c6deb4aab71808dcb408fe3d1e7690c43d37b4ce6cc0166fa7daa818601528185015285850152835190810184527f2e1a59bf0cb3b213e7cad5b7c6901c0a993010fad19bcd6f89f615eeb22d7b828185019081527f123e7271da3364c41b5c5973c22c070926432db92c9fffdac1d42dc04331dabc828401528152835180850185527f2ab92f880989abc00978ebcd8cb65ee3430300f3dd867aa7999289345b9abcc081527f1bc4c5833765a9f03f42cbcd05436b9a46384edb79996523043181c077290f138185015281840152908401528151600580825260c08201909352919082015b61476c61539a565b81526020019060019003908161476457505060808201908152604080518082019091527f1553409d29f108b15c68a3f663deec6e07a7932fd22ca71523fb5fa6eab75c2481527f18c5321b34630167b7d33e9f00d66c1fedacca3d01ef900efd968b624d62e5fc6020820152905180516000906147f957634e487b7160e01b600052603260045260246000fd5b602002602001018190525060405180604001604052807f126398f9290f5a84f85fdd43f1dec564631b432c82bd8e5fec40a0532babe36481526020017f1d27f6da79e1063333a8ba10155d79f4b24c6f2ab6c08849d06deea65387ba66815250816080015160018151811061487e57634e487b7160e01b600052603260045260246000fd5b602002602001018190525060405180604001604052807f2f8f7122a69f86cd86ef9ce2dfba5d70ed60c7f1e8ccbc607315dbc9c57703dc81526020017f195fd32371f25097e80a963f7ef3099565eea45ebbc001a999d02d1d7abe8263815250816080015160028151811061490357634e487b7160e01b600052603260045260246000fd5b602002602001018190525060405180604001604052807f229dc379b294339526d4b93e794e128ea85a19d9ee4f5c9f044da32bf9f37a5581526020017f2fed1ed7ed52b0d84ad8898263e6a25b4a5cfa8b49d30cac56a9abdcedfd17ac815250816080015160038151811061498857634e487b7160e01b600052603260045260246000fd5b602002602001018190525060405180604001604052807f0e55f14531c60978e8e94fe9c98eaefdf7b40cc25f8d4cad778f2f11d9bcf89481526020017f2dfcf94e3b185b0964f85aed3081c3799543892d30e6be4638efbf850d7552028152508160800151600481518110614a0d57634e487b7160e01b600052603260045260246000fd5b602002602001018190525090565b614a2361539a565b614a2b6153b4565b835181526020808501519082015260408101839052600060608360808460076107d05a03fa9050808015614a5e57614a60565bfe5b5080614aa35760405162461bcd60e51b81526020600482015260126024820152711c185a5c9a5b99cb5b5d5b0b59985a5b195960721b60448201526064016103c6565b505092915050565b614ab361539a565b614abb6153d2565b8351815260208085015181830152835160408301528301516060808301919091526000908360c08460066107d05a03fa9050808015614a5e575080614aa35760405162461bcd60e51b81526020600482015260126024820152711c185a5c9a5b99cb5859190b59985a5b195960721b60448201526064016103c6565b614b3f61539a565b81517f30644e72e131a029b85045b68181585d97816a916871ca8d3c208c16d87cfd4790158015614b7257506020830151155b15614b925750506040805180820190915260008082526020820152919050565b604051806040016040528084600001518152602001828560200151614bb79190615c74565b614bc19084615c42565b90529392505050565b60408051600480825260a08201909252600091829190816020015b614bed61539a565b815260200190600190039081614be557505060408051600480825260a0820190925291925060009190602082015b614c236153f0565b815260200190600190039081614c1b5790505090508a82600081518110614c5a57634e487b7160e01b600052603260045260246000fd5b60200260200101819052508882600181518110614c8757634e487b7160e01b600052603260045260246000fd5b60200260200101819052508682600281518110614cb457634e487b7160e01b600052603260045260246000fd5b60200260200101819052508482600381518110614ce157634e487b7160e01b600052603260045260246000fd5b60200260200101819052508981600081518110614d0e57634e487b7160e01b600052603260045260246000fd5b60200260200101819052508781600181518110614d3b57634e487b7160e01b600052603260045260246000fd5b60200260200101819052508581600281518110614d6857634e487b7160e01b600052603260045260246000fd5b60200260200101819052508381600381518110614d9557634e487b7160e01b600052603260045260246000fd5b6020026020010181905250614daa8282614db9565b9b9a5050505050505050505050565b60008151835114614e055760405162461bcd60e51b81526020600482015260166024820152751c185a5c9a5b99cb5b195b99dd1a1ccb59985a5b195960521b60448201526064016103c6565b82516000614e14826006615c23565b90506000816001600160401b03811115614e3e57634e487b7160e01b600052604160045260246000fd5b604051908082528060200260200182016040528015614e67578160200160208202803683370190505b50905060005b8381101561516657868181518110614e9557634e487b7160e01b600052603260045260246000fd5b60200260200101516000015182826006614eaf9190615c23565b614eba906000615b0c565b81518110614ed857634e487b7160e01b600052603260045260246000fd5b602002602001018181525050868181518110614f0457634e487b7160e01b600052603260045260246000fd5b60200260200101516020015182826006614f1e9190615c23565b614f29906001615b0c565b81518110614f4757634e487b7160e01b600052603260045260246000fd5b602002602001018181525050858181518110614f7357634e487b7160e01b600052603260045260246000fd5b6020908102919091010151515182614f8c836006615c23565b614f97906002615b0c565b81518110614fb557634e487b7160e01b600052603260045260246000fd5b602002602001018181525050858181518110614fe157634e487b7160e01b600052603260045260246000fd5b60209081029190910181015151015182614ffc836006615c23565b615007906003615b0c565b8151811061502557634e487b7160e01b600052603260045260246000fd5b60200260200101818152505085818151811061505157634e487b7160e01b600052603260045260246000fd5b60200260200101516020015160006002811061507d57634e487b7160e01b600052603260045260246000fd5b60200201518261508e836006615c23565b615099906004615b0c565b815181106150b757634e487b7160e01b600052603260045260246000fd5b6020026020010181815250508581815181106150e357634e487b7160e01b600052603260045260246000fd5b60200260200101516020015160016002811061510f57634e487b7160e01b600052603260045260246000fd5b602002015182615120836006615c23565b61512b906005615b0c565b8151811061514957634e487b7160e01b600052603260045260246000fd5b60209081029190910101528061515e81615c59565b915050614e6d565b5061516f615410565b6000602082602086026020860160086107d05a03fa9050808015614a5e5750806151d35760405162461bcd60e51b81526020600482015260156024820152741c185a5c9a5b99cb5bdc18dbd9194b59985a5b1959605a1b60448201526064016103c6565b505115159695505050505050565b60405180606001604052806151f461539a565b81526020016152016153f0565b815260200161520e61539a565b905290565b828054828255906000526020600020908101928215615268579160200282015b8281111561526857825182546001600160a01b0319166001600160a01b03909116178255602090920191600190910190615233565b5061527492915061542e565b5090565b828054828255906000526020600020908101928215615268579160200282015b82811115615268578251825591602001919060010190615298565b82805482825590600052602060002090601f016020900481019282156152685791602002820160005b8382111561531957835183826101000a81548160ff02191690831515021790555092602001926001016020816000010492830192600103026152dc565b80156153465782816101000a81549060ff0219169055600101602081600001049283019260010302615319565b505061527492915061542e565b6040518060a0016040528061536661539a565b81526020016153736153f0565b81526020016153806153f0565b815260200161538d6153f0565b8152602001606081525090565b604051806040016040528060008152602001600081525090565b60405180606001604052806003906020820280368337509192915050565b60405180608001604052806004906020820280368337509192915050565b6040518060400160405280615403615443565b815260200161520e615443565b60405180602001604052806001906020820280368337509192915050565b5b80821115615274576000815560010161542f565b60405180604001604052806002906020820280368337509192915050565b80356001600160a01b038116811461547857600080fd5b919050565b600082601f83011261548d578081fd5b813560206154a261549d83615ae9565b615ab9565b80838252828201915082860187848660051b89010111156154c1578586fd5b855b858110156154e6576154d482615461565b845292840192908401906001016154c3565b5090979650505050505050565b600082601f830112615503578081fd5b61550b615a91565b80838560808601111561551c578384fd5b835b6002811015615548576155318783615553565b84526020909301926040919091019060010161551e565b509095945050505050565b600082601f830112615563578081fd5b61556b615a91565b80838560408601111561557c578384fd5b835b600281101561554857813584526020938401939091019060010161557e565b600082601f8301126155ad578081fd5b604051608081016001600160401b03811182821017156155cf576155cf615cb4565b6040528083608081018610156155e3578384fd5b835b60048110156156045781358352602092830192909101906001016155e5565b509195945050505050565b600060208284031215615620578081fd5b61562982615461565b9392505050565b6000806000806000806101c08789031215615649578182fd5b61565287615461565b955061566060208801615461565b945061566f8860408901615553565b935061567e88608089016154f3565b925061568e886101008901615553565b915061569e88610140890161559d565b90509295509295509295565b600080604083850312156156bc578182fd5b6156c583615461565b91506020838101356001600160401b038111156156e0578283fd5b8401601f810186136156f0578283fd5b80356156fe61549d82615ae9565b80828252848201915084840189868560051b870101111561571d578687fd5b8694505b8385101561573f578035835260019490940193918501918501615721565b5080955050505050509250929050565b60008060408385031215615761578182fd5b61576a83615461565b946020939093013593505050565b600060208284031215615789578081fd5b81356001600160401b0381111561579e578182fd5b611ea98482850161547d565b600080600080608085870312156157bf578384fd5b84356001600160401b038111156157d4578485fd5b6157e08782880161547d565b94505060208501359250604085013591506157fd60608601615461565b905092959194509250565b600080600080610180858703121561581e578182fd5b6158288686615553565b935061583786604087016154f3565b92506158468660c08701615553565b91506157fd86610100870161559d565b6001600160a01b0391909116815260200190565b6020808252825182820181905260009190848201906040850190845b818110156158ab5783516001600160a01b031683529284019291840191600101615886565b50909695505050505050565b6020808252825182820181905260009190848201906040850190845b818110156158ab5783511515835292840192918401916001016158d3565b6020808252825182820181905260009190848201906040850190845b818110156158ab5783518352928401929184019160010161590d565b60208082526049908201527f43616e6e6f74206372656174652045706f636820696e766f6c76696e67206c6560408201527f7373207468616e2032206d656d62657273206f72206d6f7265207468616e203160608201526835206d656d6265727360b81b608082015260a00190565b60208082526031908201527f4f6e6c792064656469636174656420636f6f7264696e61746f7220697320616c6040820152701b1bddd959081d1bc81a5b9d195c9858dd607a1b606082015260800190565b60208082526023908201527f45706f6368206d75737420626520696e61637469766520616e642066696e69736040820152621a195960ea1b606082015260800190565b60208082526014908201527345706f6368206d7573742062652061637469766560601b604082015260600190565b6020808252601d908201527f4d656d626572206e6f742070617274206f6620746869732045706f6368000000604082015260600190565b604080519081016001600160401b0381118282101715615ab357615ab3615cb4565b60405290565b604051601f8201601f191681016001600160401b0381118282101715615ae157615ae1615cb4565b604052919050565b60006001600160401b03821115615b0257615b02615cb4565b5060051b60200190565b60008219821115615b1f57615b1f615c88565b500190565b600082615b3357615b33615c9e565b500490565b600181815b80851115615b73578160001904821115615b5957615b59615c88565b80851615615b6657918102915b93841c9390800290615b3d565b509250929050565b60006156298383600082615b91575060016113fc565b81615b9e575060006113fc565b8160018114615bb45760028114615bbe57615bda565b60019150506113fc565b60ff841115615bcf57615bcf615c88565b50506001821b6113fc565b5060208310610133831016604e8410600b8410161715615bfd575081810a6113fc565b615c078383615b38565b8060001904821115615c1b57615c1b615c88565b029392505050565b6000816000190483118215151615615c3d57615c3d615c88565b500290565b600082821015615c5457615c54615c88565b500390565b6000600019821415615c6d57615c6d615c88565b5060010190565b600082615c8357615c83615c9e565b500690565b634e487b7160e01b600052601160045260246000fd5b634e487b7160e01b600052601260045260246000fd5b634e487b7160e01b600052604160045260246000fdfe7a32bee4984163e4185449f1a14980444a6d9b8cb5c460fab0ffc56ae89ce461a26469706673582212207962e3a13fca4d7d5bff5e21bcb330935b4bf35e1cc68b2d4ec4160cc756c7c164736f6c63430008040033",
  "linkReferences": {},
  "deployedLinkReferences": {}
}